:020000040800F2
:100000000008002079020008CD340008793100088A
:10001000C9340008FD04000819360008000000007B
:10002000000000000000000000000000D5340008BF
:100030000D05000800000000D1340008D934000884
:10004000930200089302000893020008930200083C
:10005000930200089302000893020008930200082C
:1000600093020008930200089302000801050008AB
:10007000930200089302000893020008930200080C
:100080009302000800000000930200089302000899
:1000900093020008930200089302000893020008EC
:1000A00093020008F134000893020008930200084C
:1000B00093020008930200089302000893020008CC
:1000C00093020008930200089302000893020008BC
:1000D00093020008930200089302000893020008AC
:1000E000930200089302000893020008930200089C
:1000F0009302000893020008930200080000000029
:1001000000000000930200080000000093020008B5
:100110009302000800000000930200089302000808
:10012000930200089302000893020008930200085B
:100130009302000800000000000000009302000885
:100140009302000893020008000000000000000075
:10015000000000000000000000000000000000009F
:1001600000000000000000000000000093020008F2
:1001700093020008000000000000000000000000E2
:1001800000000000930200080000000000000000D2
:10019000000000000000000000000000000000005F
:1001A0000000000000000000930200089302000815
:1001B0009302000893020008930200080000000068
:1001C0000000000093020008000000000000000092
:1001D000930200089302000800F002F800F03CF8D7
:1001E0000AA090E8000C82448344AAF10107DA4592
:1001F00001D100F031F8AFF2090EBAE80F0013F0A8
:10020000010F18BFFB1A43F001031847083500001F
:1002100028350000103A24BF78C878C1FAD85207B0
:1002200024BF30C830C144BF04680C607047000070
:100230000023002400250026103A28BF78C1FBD8EF
:10024000520728BF30C148BF0B6070471FB503F08D
:100250004CFA1FBD10B510BD00F058F81146FFF75D
:10026000F5FF03F0DBF900F076F803B4FFF7F2FFD7
:1002700003BC00F07DF800000948804709480047AA
:10028000FEE7FEE7FEE7FEE7FEE7FEE7FEE7FEE746
:10029000FEE7FEE704480549054A064B70470000A3
:1002A000DD340008D9010008000200200008002009
:1002B00000040020000400204FF0000200B51346A7
:1002C00094469646203922BFA0E80C50A0E80C5076
:1002D000B1F12001BFF4F7AF090728BFA0E80C5027
:1002E00048BF0CC05DF804EB890028BF40F8042B20
:1002F00008BF704748BF20F8022B11F0804F18BF8D
:1003000000F8012B7047704770477047754600F042
:100310002BF8AE4605006946534620F00700854697
:1003200018B020B5FFF7B6FFBDE820404FF000063B
:100330004FF000074FF000084FF0000BAC46ACE860
:10034000C009ACE8C009ACE8C009ACE8C00921F0BC
:1003500007018D46704710B50446AFF30080204674
:10036000BDE81040FFF781BF004870471000002033
:1003700001491820ABBEFEE72600020070470000CE
:100380000146806AC36DC26D13F0500F08D0D206CB
:1003900048BF00F001BB406D426B0846104700BFEC
:1003A00042F40071C16501680B68CA681B0703D479
:1003B000910707D500F0ECBA12F4406FFAD1C96882
:1003C0008904F7D4C16D21F48071C165C16DC90480
:1003D00048BF00F0DDBAC16D41F00101C16500F018
:1003E000D7BA0000806AC16D41F04001C165016E5D
:1003F00041F00401016600F0CFBA0000806A00F00D
:10040000C9BA000070B582B004460020019021688E
:100410008A68D20711D14FF6C076C7F6FF76886892
:1004200006F17F0210420BD0E06D40F01000E06555
:10043000206E40F001002066012002B070BD00BFB8
:100440008868304040F00100886040F20830C5F212
:1004500000000068000221D401F09AF821680A68BF
:10046000D20717D1054602E00868C00712D1886894
:10047000C00704D18868304040F00100886001F076
:1004800087F8401B21680328EED30868C007EBD12A
:10049000CAE700BF002002B070BD00BF40F20800F4
:1004A000C2F20000006842F663518009C0F23E517A
:1004B000A0FB0101880900EB40000C2101EB80004A
:1004C000019001980028C7D0019801380190019847
:1004D0000028C1D001980138019001980028BBD0B4
:1004E00001980138019001980028B5D00198013891
:1004F000019001980028E7D1AEE70000FEE7000078
:1005000040F2E800C2F2000000F062BC7047000058
:10051000EFF3108072B600BFFEE7000070B582B046
:1005200090F85820012A03D10221084602B070BD7C
:100530000022019200920268B2F1A04F30D140F245
:1005400008324FF6006C4FF60055C5F20002CFF6A8
:10055000FF7CCFF6FF7552F80C40535923435B07DD
:100560001ED4D1F800E01368BEF1000F23F46044FC
:1005700022D04B6890F83860234343EA4633136037
:10058000535952F80C603343DB0723D11368896851
:1005900040F61F76B34341EA0E01194317E000BF4E
:1005A000C16D41F02001C1650121002280F8582071
:1005B000084602B070BD00BF1460515952F80C30AB
:1005C0001943C90708D1116840F61F739943116098
:1005D0000021EAE70021E8E70021E6E7F0B581B075
:1005E0000022009290F85820012A03D102210846E7
:1005F00001B0F0BD0123076880F85830BB685B0785
:1006000036D4D1E900531F26C3F3012407EB840439
:10061000226B03F01F039E40B243C5F3846606FAC3
:1006200003F31A432263BA68BB6802F0040203F0C2
:100630000803D21840F0BD800A6807F114030426AD
:10064000C2F34064D1F808E006EAD25C53F82450C3
:10065000C2F304540722A240BEF1004F25EA02056E
:100660000CD143F80C501A6842F000430EE000BF72
:10067000C16D41F02001C165012182E10EFA04F251
:100680002A4343F80C201A6822F000437B61D1E929
:100690000434FD68042B5FD13A6E3A6E0B68C2F3E6
:1006A000846293FAA3F6C3F3846C6FF3DF43B6FA64
:1006B00086F5002B2C464FF6FF7E08BF6446A2420B
:1006C000C0F2070E0CD13A6E22F000423A660A6878
:1006D00002EA0E03C2F3846C92FAA2F2B2FA82F535
:1006E0007A6E7A6E002BC2F384622C4608BF644691
:1006F000A2420CD17A6E22F000427A660A6802EABF
:100700000E03C2F3846C92FAA2F2B2FA82F5BA6EC8
:10071000BA6E002BC2F384622C4608BF6446A24224
:100720000CD1BA6E22F00042BA660A6802EA0E03E1
:10073000C2F3846C92FAA2F2B2FA82F5FA6EFA6E01
:10074000002BC2F3846208BF6546AA4231D1FA6E1B
:1007500022F00042FA662CE0062202EA95020E68B8
:1007600007F1600504FA02FC55F823404FF200023D
:10077000C0F2FF3206F0F846224046EA0C06324349
:1007800042F0004245F823200A698B6955F822603F
:1007900026F08076334345F822300A690B7F55F8FE
:1007A0002260012B26F0007608BF06F1007645F89E
:1007B0002260BA68D20750D10C68CA68D7F8B06016
:1007C00023466FF3DF4326EA030C4FF6FF7602F071
:1007D0001805C0F20706EE4000252640C4F27F054A
:1007E00046EA0C06AA42C7F8B06036D193B194FA33
:1007F000A4F2B2FA82F2013202F01E03092B02F0D7
:100800001F0310D801229A4003EB430342EA03532B
:1008100015E000BF012202EB946202F01E030A2BD6
:1008200002F01F03EED3012200269A4003EB43039C
:10083000CFF6206606EB03531A4342F00073C3F36E
:10084000406607EB86068A687569C3F3045307247C
:100850009C40A5439A402A43726109680022C8F26D
:100860000802114254D040F2083CC5F2000CDCF8FA
:1008700000300022CCF22132914203F0E07404D027
:100880001022C9F2C002914244D119024FF0000176
:1008900077D4B7F1A04F74D1DCF8001042F6635260
:1008A00021F0E071214341F40001CCF8001040F246
:1008B0000801C2F200010968C0F23E528909A1FB99
:1008C0000212910901EB41010C2202EB810100911E
:1008D000009900293CD000BF00990139009100998E
:1008E000002947D00099013900910099002943D08F
:1008F000009901390091009900293FD000990139F0
:100900000091009900294FF00001E5D139E000BFC6
:10091000002136E00022CCF25272914208BF13F05F
:10092000807217D00022CCF6843291424FF0000141
:1009300008BF13F4800224D1ACF50272974220D094
:10094000DCF8001021F0E071214341F480010CE05B
:10095000002116E0ACF502718F4211D0DCF80010D6
:1009600021F0E071214341F08071CCF800100021AA
:1009700007E000BF002104E0002102E0002100E0C8
:100980000021002280F85820084601B0F0BD000088
:10099000704700007047000070470000B0B582B09B
:1009A0000446002001904CB1E06D58B12168886880
:1009B000800012D48868C00019D54CE0012002B034
:1009C000B0BD00BF204600F009F90020206684F881
:1009D0005800216888688000ECD588684FF6C0729E
:1009E000C5F6FF72104088608868C00033D44FF6A7
:1009F000C0728868C5F6FF7202F18052104000F1A3
:100A00008050886040F20800C2F20000006842F6A0
:100A100063528009C0F23E52A0FB020290090222FA
:100A200002EB400001900198A8B100BF0198013885
:100A30000190019878B1019801380190019850B166
:100A4000019801380190019828B10198013801906E
:100A500001980028EAD18868C00009D4E06D40F010
:100A60001000E065206E40F001002066012000E0EB
:100A700000208A68E36D02F0040203F01003D2182C
:100A8000E26D71D122F481720232E2658A68D20786
:100A90001AD140F2083C4FF600534FF60062C5F2FF
:100AA000000CCFF6FF73CFF6FF725CF803305CF8F2
:100AB00002201A43D20707D16268DCF8003023F421
:100AC0007C131A43CCF80020627FE36B43EA423286
:100AD000D4E902C31A4394F8243042EA0C02012BF1
:100AE00042EA034207D1D4F828C00023CFF6FE73B0
:100AF00003EB4C431A43E36A33B103F47873D4F83D
:100B000030C01A4342EA0C02D1F80CC044F2070389
:100B1000CFF6F07303EA0C031A43CA600A69636BE9
:100B200022F040621A430A618A68120745D494F899
:100B30003820237F520042EA833CCB6844F2020211
:100B400023EA020242EA0C02CA6022690B698AB1F6
:100B500043F480330B61D1F8C0C043F6FF732CEA35
:100B600003031A430EE000BF42F010010120E165CB
:100B700002B0B0BD23F480320A61D1F8C02043F640
:100B8000FF739A43C1F8C02094F840300A69012BE2
:100B900010D140F2FD7322EA030CD4E91132D4E9FA
:100BA00013E543EA0C031A4342EA0E022A4342F0D9
:100BB000010201E022F001020A6162690B6B012A65
:100BC00023F00F0202D1236A013B1A430A63E16D4D
:100BD000012262F30101E16502B0B0BDF0B597B04A
:100BE00004460020CDE9150001A804304021FFF79C
:100BF00063FB2068B0F1A04F02D017B0F0BD00BF7A
:100C00004FF4004001904FF00050109001A800F008
:100C10000DFE002818BFFFF77BFC41F24C00C4F228
:100C20000200016812AD41F4005101600168032720
:100C300001F40051009100990168002641F0010182
:100C40000160016801F0010100910099016841F023
:100C5000020101600068294600F00200009000983F
:100C60000F2012904FF090401397149600F0A2FBC3
:100C70004FF48040CDE9120740F20040C4F6000076
:100C80002946149600F096FB40F2E8050820C2F2CF
:100C90000005C4F2020005214FF4807385E843008B
:100CA00005F114004FF480674FF0200C80E88810A5
:100CB0004FF40050802228622846C5E9036200F004
:100CC000DDF8002818BFFFF723FC6565AC6217B09C
:100CD000F0BD00002DE9F04140F200170446C5F2D6
:100CE0000007D7F80802236890469B685A0704D487
:100CF0000E4694F85810012902D10220BDE8F08177
:100D000000F01F050120092D84F858005AD8A8408A
:100D100040F22121084255D02046FFF773FB28B14D
:100D2000002184F85810BDE8F08100BF2168E06D13
:100D300040F601729043B9420A4600F5807008BF40
:100D40004FF0A0428A42E06518BF002D03D1E06D4C
:100D500020F48010E065E06D40F28133C0044FF074
:100D6000000044BF206E20F006002066606D40F257
:100D7000FD37C0F60003C0F6000740F2E53500225B
:100D8000C0F60005C0E90B371C2345630B6084F8EF
:100D900058204A68434642F010024A60CA6842F04E
:100DA0000102CA604031324600F0FEF821684FF679
:100DB000C0738A68C7F6FF731A4004328A60BDE8C0
:100DC000F08100BF002084F858000120BDE8F081C8
:100DD000B0B5D0E910C30268DCF8001003F01F03BF
:100DE0000424D2F800E09C400C4218BF1EF0040519
:100DF00022D102249C400C4218BF1EF0020529D1CA
:100E0000D940090724D51EF0080108BFB0BD1168FC
:100E100021F00E011160012101FA03F2CCF8042047
:100E2000C16380F82510416B002280F8242079B13D
:100E3000BDE8B040084700BF1168890603D41168B7
:100E400021F004011160CCF80440016B0029EFD1BE
:100E5000B0BD00BF1168890606D4116821F00A01EF
:100E60001160012180F82510CCF80440C16A0022ED
:100E7000002980F82420DBD1EAE7000000284FF0A9
:100E8000010100F08E802DE9F04740F2000CC4F221
:100E9000020C03684FF6F8320CF5816ECBF6FD724A
:100EA000734538BF02F580624CF6CD441A44CCF647
:100EB000CC44A2FB04286FF0070252FA83F2A2FB93
:100EC00004290CF580656FF00304D0E90262D0F8C4
:100ED00010A03CBF0025C4F2020504EA9804C0E952
:100EE0001054022580F825501D6847F6F07725EA52
:100EF000070737433A43476942EA0A0285693A439A
:100F0000C7692A43056A3A432A431A600CF502620C
:100F1000734538BF0CF50062A3180CF50862C26473
:100F2000C9F3041240F6840C01FA02F2B6F5804FC0
:100F3000C4F2020C8364026506D10021416019608D
:100F4000CCF800201EE000BF41685FFA81FE013945
:100F500003294FF00001C3F800E0CCF8002011D8BD
:100F6000AEF101020CEB820747F87C1F02F01F0173
:100F7000012202FA01F30CF1BC023946CCF8C03070
:100F800002E000BF0022002300F1540C8CE80E00A8
:100F900000210122C16380F8252080F82410BDE8DB
:100FA000F0470846704700002DE9F04190F824C052
:100FB000BCF1010F43D04FF0010C80F824C090F831
:100FC00025C0BCF1010F37D14FF0020C80F825C0CD
:100FD0004FF0000CC0F83CC0D0F800C000F14C0E3F
:100FE0009EE83040DCF80060BEF1000F26F00106FC
:100FF000CCF8006065601CBFD0E916456560D0E99B
:101000001076012506F01F068468B540D0F83080C0
:101010007D60CCF804300B46102C04BF13460A4602
:10102000CCF80830CCF80C20DCF80010B8F1000F38
:1010300008D041F00E010DE0002180F824100220BC
:10104000BDE8F08121F00401CCF80010DCF80010BC
:1010500041F00A01CCF80010806C0168C90303D587
:10106000016841F480710160BEF1000F05D0DEF827
:10107000000040F48070CEF80000DCF8000040F082
:101080000100CCF800000020BDE8F081B0B50446B6
:1010900000F07EFA054640F20000C2F2000040680F
:1010A000611C18BF044400BF00F072FA401BA0424C
:1010B000FAD3B0BD70B5D8B1044690F85C0028B939
:1010C000002084F85D00204600F018F9206881694E
:1010D00021F01001816100F05BFA0546206881690A
:1010E000090707D500F054FA401B0B28F6D312E08D
:1010F000012070BD816941F00101816100F048FA71
:10110000054600BF21688869C0070DD100F040FA8C
:10111000401B0B28F6D3206E032140F0010020660F
:10112000012084F85C1070BD4AF200408A69C4F264
:101130000000A0F5804342F0020299428A6105D185
:1011400062684CF20013CFF6FF73C250227C8B69A9
:10115000012A23F0400318BF40338B61627C8B6906
:10116000012A23F4804308BF03F580438B61A27CEE
:101170008B69012A23F4805318BF03F580538B61D8
:101180008A69D4E902E322F4407545EA0E058D61CF
:101190008D6925F0A4058D610D6925F010050D619F
:1011A000A3B1012B0ED0022B09D08D69032B45F082
:1011B00080058D610D6945F010050D6106D1202374
:1011C00001E000BF04238D692B438B61D4E9053511
:1011D000D4E907266FF0FF0C013D0CEB022242EA36
:1011E0004562751E2A430025CFF6FF7505EB0343C4
:1011F0001A43BEF5407FCA6110D1D4E909E3D4E9AE
:101200000B62013B0CEB062633436FF00F0606EB37
:1012100002121A4305EB0E431A43CA6004F1340666
:101220004CCED1F8C0502E43C1F8C0602064D1F834
:1012300080604AF2704526F4F816C4F2000546EACA
:101240000242C1F880206564D1F8802022F07062EB
:1012500042EA0362C1F8802005F14001A16405F56E
:101260008C71E16405F5F871216505F50271616520
:10127000002105F5037200BFC0E90011C0E90211A9
:10128000C0E90411C0E90611C0E90811C0E90A115A
:10129000C0E90C11C0E90E11C0E91011C0E912112A
:1012A000C0E91411C0E91611C0E91811C0E91A11FA
:1012B000C0E91C11C0E91E11C0E92011C0E92211CA
:1012C000C0E92411C0E92611C0E92811C0E92A119A
:1012D000C0E92C11C0E92E11C0E93011C0E932116A
:1012E000C0F8D010904200F1D400C5D300200121F5
:1012F000A065206684F85C1070BD0000F0B597B062
:10130000044601A804304021FEF7D6FF206846F2CB
:101310000041C4F20001884202D017B0F0BD00BF06
:101320004FF000704FF480540D9001A8019400F02C
:101330007DFA002818BFFFF7EBF841F24C00C4F229
:101340000200C168022541F00071C160C168002639
:1013500001F00071129112990168092741F0010111
:101360000160016801F0010112911299016841F0D8
:1013700002010160006800F00200129012981294BD
:1013800012AC4FF0904021461395CDE914661697A4
:1013900000F010F84FF4807012A961C140F20040D3
:1013A000C4F600002146CDE9156700F003F817B038
:1013B000F0BD00002DE9F04F84B08E4641F20042AE
:1013C000C4F60002DEF8004006219042019008BFFA
:1013D0000521002C009100F0D7800198002500F134
:1013E00038424FEAB2230098012700264FF0000848
:1013F000052B38BF18460090CDF808E00EE000BF7E
:10140000DEF8004008F1010834FA07F106F102069F
:1014100007F1010705F1040500F0B680A7F1010A04
:10142000012000FA0AF314EA0309E9D0DEF804C047
:101430000CF0030BABF10104012C17D80198744692
:1014400081680322E468B2409143B4402143816043
:1014500041684FEA480E9943CCF3001303FA0AF3AC
:101460000446D043194361600CE000BF0321B14042
:10147000019CC843BBF1030FB64603D1B6464FF0FB
:10148000030B23E0E168029A01409368BBF1020F6D
:1014900003FA0EF341EA0301E16017D16FF0030193
:1014A00001EA5A01214405F01C040F23D1F820C0A1
:1014B00003FA04FB13692CEA0B0CA34043EA0C0368
:1014C000019C0B62D2F804C00CF0030B21680BFAEC
:1014D0000EF2014011432160DDF808E01CF4403FAA
:1014E0008ED041F26000C4F20200016840F2004C6C
:1014F00041F0010101600168C4F2010C01F0010139
:10150000039103992AF003014FF6084A6144CFF68C
:10151000FF7A05F00C030F2051F80A2000FA03F4BB
:101520000098A24300FA03F31A4341F80A20DCF8BA
:101530000810DEF8042041EA090340F20C40D4020E
:1015400058BF21EA0903CCF80830C4F20100016851
:10155000940241EA090358BF21EA09030360DCF859
:101560000410940341EA090358BF21EA0903CCF8A7
:101570000430DCF80010D20341EA090358BF21EA25
:101580000903CCF800303BE704B0BDE8F08F000061
:1015900040F2F810C2F200000068704740F200000C
:1015A00040F2F811C2F20000C2F2000140680A687D
:1015B000104408607047000080B5032000F088F8F0
:1015C0000F2000F009F800281CBF012080BD00F0AA
:1015D00029F8002080BD000070B540F20006C2F27C
:1015E00000067168E1B1044640F20800C2F2000052
:1015F0004FF47A720068B2FBF1F1B0FBF1F000F049
:1016000011FE0F2C4FF0010508D838B94FF0FF300C
:1016100021460022002500F02FF83460284670BDD6
:10162000012070BD82B041F25800C4F2020081680E
:1016300041F001018160816801F00101019101998E
:10164000016841F080510160006800F08050009016
:10165000009802B000F0E0B8002848BF704700F0E2
:101660001F01012202FA01F14EF200124009CEF2EE
:10167000000242F82010704710B54EF60C5CCEF216
:10168000000CDCF80030C3F3022E8EF00704042CAB
:1016900028BF0424BEF103034FF0FF3E0EFA04F40A
:1016A00038BF0023A14399400EFA03F39A43114334
:1016B00000F00F02043A624409010C3200F1604369
:1016C000B0F1FF3FC8BF03F56442117010BD0000C8
:1016D0004EF60C51CEF200010A684FF6FF031A4095
:1016E00060F30A2242F0806040F0FD7008607047AD
:1016F000B0F5007F42D0002840F0808047F214000F
:10170000C4F2000050F8141CC26E01F4C06122F44F
:101710008072B1F5806FC2662ED150F8141C012280
:1017200062F34A2140F8141C40F20801C2F20001A1
:101730000968322251434DF68362C4F21B32A1FB89
:101740000212910C0268520511D54A1C0FD0026892
:1017500052050CD559B10268520508D5012906D0A9
:101760000268520503D50229A1F10401EAD10068FB
:10177000400544BF032070470020704747F2140023
:10178000C4F2000050F8141CC26E01F4C06142F4AF
:101790008072B1F5806FC266EED150F8141C012240
:1017A00062F34A2140F8141C40F20801C2F2000121
:1017B0000968322251434DF68362C4F21B32A1FB09
:1017C0000212910C0268520511D54A1C0FD0026812
:1017D00052050CD559B10268520508D5012906D029
:1017E0000268520503D50229A1F10401EAD100687B
:1017F000400544BF03207047BEE700BF47F2140016
:10180000C4F2000050F8141C022262F34A2140F88E
:10181000141C00207047000047F20800C4F20000CA
:10182000016841F480410160704700002DE9F041FA
:1018300082B00446807841F288060007C4F20206AE
:1018400002D400202FE000BF56F8300C10F0805872
:101850000BD156F8300C40F0805046F8300C56F85A
:10186000300C00F080500190019847F20007C4F25C
:101870000007386840F480703860FFF789FE05463D
:101880003868C00500F1D680FFF782FE401B0228B1
:10189000F6D90320B8F1000F05D156F8301C21F01D
:1018A000805146F8301C2168CA0713D18A0719D421
:1018B0004A071FD40A0725D48A062BD44A0631D4F6
:1018C0000A0637D4CA053DD48A0543D44A0549D40B
:1018D00057E000BF3268636822F003021A433260A7
:1018E0008A07E5D53268A36822F00C021A433260F9
:1018F0004A07DFD53268E36822F030021A433260CB
:101900000A07D9D53268236922F0C0021A4332602F
:101910008A06D3D53268636922F440621A43326082
:101920004A06CDD53268A36922F440521A43326088
:101930000A06C7D53268E36922F440421A4332608E
:10194000CA05C1D53268236A22F440321A43326094
:101950008A05BBD53268636A22F440221A4332609A
:101960004A050ED53268A36A22F440121A43B3F531
:10197000801F326005D156F87C2C42F4801246F864
:101980007C2C0A050ED53268E36A22F440021A4321
:10199000B3F5800F326005D156F87C2C42F48012EA
:1019A00046F87C2CCA040ED53268236B22F04072B4
:1019B0001A43B3F1807F326005D156F87C2C42F493
:1019C000801246F87C2C8A040ED53268636B22F0B4
:1019D00040621A43B3F1006F326005D156F87C2C97
:1019E00042F4801246F87C2C4A040ED53268A36B70
:1019F00022F040621A43B3F1006F326005D156F80D
:101A00007C2C42F4801246F87C2C09040ED53168F7
:101A1000E26B21F040511143B2F1805F316005D19A
:101A200056F87C1C41F4803146F87C1C02B0BDE8BD
:101A3000F08100BFB06810F4407010D0216C884273
:101A40000BD0B068B16820F4407041F48031B160CF
:101A5000B16821F48031B160B060C0070CD1B068CA
:101A6000216C20F440700843B0600020B8F1000FF2
:101A70007FF419AF11E700BFFFF78AFD054641F279
:101A8000883700BFB0688007E9D4FFF781FD401BAD
:101A9000B842F7D9FDE600002DE9F047002865D0EF
:101AA00042F2000AC4F2020A0446DAF800000D46C7
:101AB00000F00F0088420CD2DAF8000020F00F008E
:101AC0002843CAF80000DAF8000000F00F00A8422E
:101AD0004CD1216841F20808C807C4F2020803D1BA
:101AE000880740F1C880ADE06068022832D0032842
:101AF00038D158F8082C920138D5D8F80420D8F8F5
:101B0000042042F20043C2F30312D8F804700132F9
:101B1000C0F2F403B3FBF2F2C7F30623D8F8047063
:101B20005A43C7F34163022707EB4303B2FBF3F2C7
:101B30004BF20043C0F2C4439A4259D9D8F800206E
:101B400012F0F00F49D0890752D5A16800294FD172
:101B500043E000BF58F8081C89035CBF0120BDE8C2
:101B6000F08707E058F8081C490503D40120BDE8B8
:101B7000F08700BFD8F8001001F00C01042937D01D
:101B8000D8F8001001F00C01082931D0D8F8001065
:101B900001F00C010C292BD1D8F80410D8F804104E
:101BA00042F20042C1F30311D8F804300131C0F20F
:101BB000F402B2FBF1F1C3F30622D8F8043051432A
:101BC000C3F34162022303EB4202B1FBF2F14BF299
:101BD0000042C0F2C44291420AD9D8F8001008224B
:101BE00062F307114FF00109C8F8001002E000BFCE
:101BF0004FF00009D8F8001021F003010843C8F89D
:101C00000000FFF7C5FC064641F28837D8F800000F
:101C1000616800F00C00B0EB810F07D0FFF7B8FC53
:101C2000801BB842F2D90320BDE8F08721688807FD
:101C300008D4B9F1000F1ED0D8F8000020F0F00051
:101C400017E000BF480705D5D8F8000040F4E06071
:101C5000C8F80000080706D5D8F80000072262F38C
:101C60000D20C8F80000D8F80000A26820F0F000AD
:101C70001043C8F80000DAF8000000F00F00A84296
:101C80001BD9DAF8000020F00F002843CAF8000042
:101C9000FFF77EFC064641F2883700BFDAF8000005
:101CA00000F00F00A84207D0FFF772FC801BB8427B
:101CB000F4D90320BDE8F0872168480707D5D8F894
:101CC0000000E26820F4E0601043C8F80000080754
:101CD00008D5D8F80000216920F4605040EAC1001E
:101CE000C8F80000D8F8000000F00C00042842F208
:101CF0000040C0F2F40024D0D8F8001001F00C012C
:101D000008291ED0D8F8001001F00C010C2917D1B9
:101D1000D8F80410D8F80410D8F80420C1F303113F
:101D20000131B0FBF1F0C2F30621D8F8042048439A
:101D3000C2F34161022202EB4101B0FBF1F000E08D
:101D40000020D8F8001043F20472C1F30311C0F66A
:101D50000002515C40F2080201F01F0120FA01F17B
:101D600040F20000C2F200000068C2F200021160FE
:101D7000BDE8F047FFF730BC2DE9F04182B0002804
:101D800000F006810446007841F20006C007C4F264
:101D9000020655D12078800774D42078000700F11E
:101DA00097802078400700F1B7802078800600F106
:101DB0000781E569002D00F03082B06800F00C006A
:101DC0000C2840F05981012D00F0E280F068216A72
:101DD00000F003028A4240F0DB80626A6FF00F037A
:101DE00000F0F00103EB0212914240F0D180A16AB1
:101DF00000F4FE42B2EB012F40F0CA80E16A00F02D
:101E00007842B2EBC16F40F0C380226B0023CFF663
:101E1000E07303EB025200F4C0016FF3140291422D
:101E200040F0B680616B4FF07E4202EB016100F042
:101E3000C06001F07E41884240F0AA80EDE100BF21
:101E4000B06800F00C01F06808295BD0032281F033
:101E50000C0122EA00000844B0FA80F0400951D198
:101E60006068B0F5803F07D0B0F5A02F40F0DA8071
:101E7000306840F480203060306840F4803030605A
:101E8000DBE000BFB068F16800F00C00042869D006
:101E900001F0030180F00C0081F002010844B0FA67
:101EA00080F040095ED1E1683068002900F0D280FE
:101EB00040F480703060FFF76BFB054630684005EA
:101EC00000F1FC80FFF764FB401B0228F6D92EE1ED
:101ED0006169D6F89400002900F0908040F001007C
:101EE000C6F89400FFF754FB054600BFD6F89400EF
:101EF00080073FF556AFFFF74BFB401B0228F5D993
:101F000015E100BF306880037FF544AF60680028AA
:101F10007FF440AF3CE000BFB06D10F0805808D1B6
:101F2000B06D40F08050B065B06D00F08050019011
:101F3000019847F20007C4F200073868C0052BD4A7
:101F4000386840F480703860FFF722FB054600BF18
:101F50003868C00520D4FFF71BFB401B0228F7D9C7
:101F6000E5E000BF3068400501D5E06880B17068E9
:101F7000216920F0FE4040EA0160706040F20000FC
:101F8000C2F200000068FFF727FB00283FF405AF0E
:101F9000012002B0BDE8F081A068012808D0052822
:101FA00040F0AA80D6F8900040F00400C6F89000F7
:101FB000D6F8900040F00100C6F89000A9E000BFFC
:101FC000A169D6F89800002900F0808040F0010057
:101FD000C6F89800FFF7DCFA054600BFD6F898006F
:101FE00080073FF5E6AEFFF7D3FA401B02284FF01B
:101FF0000300F3D902B0BDE8F08100BF20F001007A
:10200000C6F89400FFF7C4FA054600BFD6F894005E
:1020100080077FF5C6AEFFF7BBFA401B0228F5D953
:1020200085E000BF3168002821F4803131603168DB
:1020300021F48021316000F07F80FFF7A9FA054686
:10204000306880033FF5A6AEFFF7A2FA401B642874
:10205000F6D96CE020F480703060FFF799FA0546FD
:10206000306840057FF599AEFFF792FA401B0228D1
:102070004FF00300F4D9BDE7306820F08070306085
:10208000FFF786FA022D05460CD100BF30688001AB
:1020900040F17E80FFF77CFA401B02284FF00300DE
:1020A000F4D9A7E73068800140F1B080FFF770FAFB
:1020B000401B02284FF00300F4D99BE770682169A8
:1020C00020F0FE4040EA0160706066E620F001000A
:1020D000C6F89800FFF75CFA054600BFD6F89800EE
:1020E00080077FF566AEFFF753FA401B02284FF0DA
:1020F0000300F3D97EE700BFD6F8901021F001016C
:10210000C6F89010D6F8901021F00401C6F890108F
:1021100010B3FFF73DFA054641F28837D6F8900034
:1021200080072BD4FFF734FA401BB842F6D90320BE
:1021300002B0BDE8F08100BFFFF72AFA054600BFF4
:10214000306880037FF526AEFFF722FA401B642833
:102150004FF00300F4D94DE7FFF71AFA054641F2B4
:10216000883700BFD6F89000800707D5FFF710FA30
:10217000401BB8424FF00300F4D93BE7B8F1000F21
:102180007FF413AEB06D20F08050B0650DE600BF57
:10219000F06848F20C01C0F29F1104F1200700EA38
:1021A000010C8ECF6FF00F00D4E90C5400EB02103D
:1021B0000022CFF6E07241EA0C0102EB055208431F
:1021C0006FF314024FF07E4540EA032005EB0465EF
:1021D000104305F07E4540EAC7602843F060306850
:1021E00040F080703060F06840F08070F060FFF781
:1021F000CFF90446306880010FD4FFF7C9F9001BFE
:1022000002284FF00300F5D9F4E600BFF0684FF65E
:10221000FC71CFF6EE610840F060002002B0BDE82E
:10222000F0810000411E0020B0EB116F1CBF0120A7
:1022300070474EF21002CEF2000251604EF623516A
:10224000CEF20001F0230B700721906011607047FF
:10225000704700007047000070470000B0B590F86C
:102260003C20012A04BF0220B0BDD1E90232D1E9ED
:1022700000CE22F47C5223F4705343EA020448F265
:10228000FF73CEF6F0730EEA0302224303F50064F7
:1022900004EA0C0442EA040C0C6903F5C052224023
:1022A0004C6942EA0C02224303F5605422400C6B55
:1022B00003F5F04323401A438B6940F2000CCC69CC
:1022C000CEF6FF7C0CEA03431443D0F800C043F27F
:1022D0000042C4F20102944543EA040305D042F6E9
:1022E0000042C4F20102944516D14FF6FF72CDF6BA
:1022F0000F421A40D1E9083ED1E90A410025CDF646
:10230000F04505EA0454224323F008531A432EF003
:1023100000531A4342EA01030021CCF8443080F80C
:102320003C100846B0BD0000704700000168486DD1
:1023300040F4003200204A657047000070470000FA
:102340007047000070B590F83C20012A4FF002025F
:1023500047D080F83D20026843F2004C54689368EF
:10236000C4F2010C42F6004E6245C4F2010E01D0E7
:10237000724503D14D6824F470042C434FF68F75D9
:10238000CFF6FF550E682C4042F6FF35C4F201052A
:102390003443AA4254600FDCB2F1804F16D040F2B1
:1023A0000046C4F20006B24210D040F60006C4F265
:1023B0000006B2420AD00EE0724507D044F2000691
:1023C000C4F20106B24201D0624504D1896823F00B
:1023D0008003194391600121002280F83D1080F8AC
:1023E0003C20104670BD000041B1082910D00429DE
:1023F00014BF00F1470200F145020BE090F84420C1
:10240000012A1CBF01207047022280F8442013E0FB
:1024100000F146021278012A1CBF012070470222F7
:10242000082907D0042914BF80F8472080F84520E8
:1024300002E000BF80F84620026801F00F0004218E
:10244000136A01FA00F023EA00011162116A0843DD
:102450001062506C42F6FF31C4F2010140F40040BA
:102460008A42506410DCB2F1804F1FD040F200402D
:10247000C4F20000824219D040F60000C4F200000D
:10248000824213D01FE000BF42F60040C4F20100B8
:1024900082420BD044F20000C4F20100824205D017
:1024A00043F20040C4F2010082420CD1906807213F
:1024B000C0F20101014006294FF0000008D0B1F53B
:1024C000803F08BF7047106840F001001060002096
:1024D000704700007047000090F83D1001291CBFB4
:1024E00001207047022180F83D10016842F6FF325A
:1024F000C868C4F20102914240F00100C8600FDCDC
:10250000B1F1804F1ED040F20040C4F20000814281
:1025100018D040F60000C4F20000814212D01EE044
:1025200042F60040C4F2010081420BD044F20000A8
:10253000C4F20100814205D043F20040C4F2010020
:1025400081420CD188680722C0F201020240062AAB
:102550004FF0000008D0B2F5803F08BF7047086810
:1025600040F0010008600020704700007047000044
:10257000F0B581B004460068C5680669B10717D593
:1025800015F0020114D06FF00201016101212177E1
:102590008069800704D02046FFF7E8FF06E000BF0F
:1025A000204600F0B1FA204600F01CFD0020207704
:1025B000700719D515F0040016D020686FF00401DB
:1025C000016102212177806910F4407F04D0204608
:1025D000FFF7CCFF06E000BF204600F095FA20464A
:1025E00000F000FD00202077300717D515F0080017
:1025F00014D020686FF00801016104212177C069BF
:10260000800703D02046FFF7B1FF05E0204600F029
:102610007BFA204600F0E6FC00202077F00619D572
:1026200015F0100016D020686FF01001016108212C
:102630002177C06910F4407F04D02046FFF796FF51
:1026400006E000BF204600F05FFA204600F0CAFC1A
:1026500000202077F00718BF15F0010006D0206891
:102660006FF001010161204600F082FD16F4025F67
:1026700005F0800718BF002F02D1F00509D410E043
:1026800020686FF4025101612046FFF7E3FDF00579
:1026900007D537B120686FF4807101612046FFF7DC
:1026A000D7FD700609D515F0400006D020686FF000
:1026B00040010161204600F05DFDB00609D515F02E
:1026C000200006D020686FF0200101612046FFF74E
:1026D000C3FDF00209D515F4801006D020686FF410
:1026E000801101612046FFF729FEB00209D515F4DB
:1026F000001006D020686FF4001101612046FFF73A
:1027000013FE700209D515F4800006D020686FF41E
:10271000800101612046FFF713FE30020CD515F44D
:10272000000009D021686FF4000220460A6101B060
:10273000BDE8F040FFF7CEBE01B0F0BDF0B585B00A
:10274000006842F60041C4F20101884202D005B09F
:10275000F0BD00BF41F24C00C4F2020001686C46BB
:1027600041F0020101600168022501F002010091BF
:1027700000990168002641F0010101600068062708
:1027800000F001000090009840F20040C4F6000004
:102790002146CDE90055CDE902660497FEF70AFE11
:1027A0004FF480608DE861004FF090402146CDE904
:1027B0000367FEF7FFFD4FF400608DE861000B201A
:1027C00004904FF0904021460396FEF7F3FD05B0CC
:1027D000F0BD0000F0B590F83C30012B04BF0220A2
:1027E000F0BD4FEAB202052A00F25081DFE812F094
:1027F000060046008E00D6001E0154010268146ACD
:10280000136AA2F1804523F0010313625368D2F8E2
:1028100018E08E68A5F59635D1F800C024F00204C2
:102820004FEAB525072D44EA06040AD80126AE4032
:1028300016F0E50F1FBFCE6824F00C0426F0040646
:102840003443072D0BD8012606FA05F515F0E50FE0
:102850001FBF23F44073D1E905562B4333434FF692
:102860008C75CFF6FE750EEA050646EA0C06536037
:1028700096614968516314623FE100BF026843F208
:102880000045146A136AC4F2010523F010031362B1
:102890005368D2F818E0AA428D68D1F800C024F03D
:1028A000200444EA051405D042F60045C4F20105AF
:1028B000AA4207D1CD686FF0400624F0C00406EAB2
:1028C00005152C43A2F18045A5F596354FEAB525AF
:1028D000072D0DD8012606FA05F515F0E50F1FBFE7
:1028E00023F44063D1E9055643EA850343EA8603AE
:1028F00048F6FF45CFF6FF650EEA050646EA0C26C8
:1029000053609661496891631462F6E0026843F28D
:102910000045146A136AC4F2010523F4807313623C
:102920005368D2F81CE0AA428D68D1F800C024F4A4
:10293000007444EA052405D042F60045C4F20105BE
:10294000AA4207D1CD6840F2FF462D0224F440642C
:10295000B5432C43A2F18045A5F596354FEAB52540
:10296000072D0DD8012606FA05F515F0E50F1FBF56
:1029700023F44053D1E9055643EA051343EA06130D
:102980004FF68C75CFF6FE750EEA050646EA0C0684
:102990005360D6614968D1631462AEE0026843F2C5
:1029A0000045146A136AC4F2010523F480531362CC
:1029B0005368D2F81CE0AA428D68D1F800C024F414
:1029C000005444EA053405D042F60045C4F201053E
:1029D000AA4207D1CD6844F6FF762D0324F4404483
:1029E000B5432C43A2F18045A5F596354FEAB525B0
:1029F000072D0DD8012606FA05F515F0E50F1FBFC6
:102A000023F44043D1E9055643EA851343EA86138C
:102A100048F6FF45CFF6FF650EEA050646EA0C26A6
:102A20005360D66149681164146266E00268D2F8A6
:102A300020C0136AA2F1804623F480331362A6F506
:102A400096365368146D0D68D1F808E04FEAB62643
:102A5000072E0AD8012707FA06F616F0E50F1EBF63
:102A60004E6923F4803343EA06234FF68C76CFF683
:102A7000FE760336344044EA05065360166549681D
:102A80002CF4003747EA0E43916435E0012100221F
:102A900080F83C200846F0BD0268D2F820C0136AD6
:102AA000A2F1804623F480131362A6F5963653688C
:102AB000156D0C68D1F808E04FEAB626072E0AD843
:102AC000012707FA06F616F0E50F1EBF4E6923F43C
:102AD000802343EA862348F6FF46CFF6FF6606F5D5
:102AE0004076354045EA0426536016652CF40017FD
:102AF000496847EA0E53D16413620021002280F82E
:102B00003C200846F0BD000070470000002804BFCC
:102B10000120704710B5044690F83D0028B9002008
:102B200084F83C00204600F023F8022084F83D00A1
:102B30002068211D00F0E2FC012084F8480084F8A0
:102B40003E0084F83F0084F8400084F8410084F897
:102B5000420084F8430084F8440084F8450084F877
:102B6000460084F8470084F83D00002010BD0000B6
:102B7000704700002DE9F04190F83C30012B04BF74
:102B80000220BDE8F0814FEAB202052A00F28481FA
:102B9000DFE812F006005000A200F40046018A01AE
:102BA00003681D6A1A6AA3F1804622F001021A62C4
:102BB0001A465C6852F818CF8F68A6F59636D1F899
:102BC00000E025F002054FEAB626072E45EA070584
:102BD0000AD80127B74017F0E50F1FBFCF6825F0CF
:102BE0000C0527F004073D43072E0BD8012707FAF1
:102BF00006F616F0E50F1FBF24F44074D1E905670F
:102C000034433C434FF68C76CFF6FE760CEA06074B
:102C100047EA0E075C609F614F6809695F631D6248
:102C20009F6947F008079F619F6927F004079F612C
:102C300077E100BF036843F200461D6A1A6AC4F2D6
:102C4000010622F010021A621A465C6852F818EF68
:102C5000B3428E68D1F800C025F0200545EA06157C
:102C600005D042F60046C4F20106B34207D1CE6851
:102C70006FF0400725F0C00507EA06163543A3F1BB
:102C80008046A6F596364FEAB626072E0DD80127C0
:102C900007FA06F616F0E50F1FBF24F44064D1E9E9
:102CA000056744EA860444EA870448F6FF46CFF6FF
:102CB000FF660EEA060747EA0C275C609F614F68D3
:102CC00009699F631D629F6947F400679F619F695F
:102CD00027F480679F6123E1036843F200461D6A81
:102CE0001A6AC4F2010622F480721A621A465C68FB
:102CF00052F81CCFB3428E68D1F800E025F400757D
:102D000045EA062505D042F60046C4F20106B34264
:102D100007D1CE6840F2FF47360225F44065BE4336
:102D20003543A3F18046A6F596364FEAB626072E20
:102D30000DD8012707FA06F616F0E50F1FBF24F499
:102D40004054D1E9056744EA061444EA07144FF6F3
:102D50008C76CFF6FE760CEA060747EA0E075C6033
:102D6000DF614F680969DF631D62DF6947F00807AB
:102D7000DF61DF6927F00407DF61D2E0036843F217
:102D800000461D6A1A6AC4F2010622F480521A62D1
:102D90001A465C6852F81CCFB3428E68D1F800E046
:102DA00025F4005545EA063505D042F60046C4F242
:102DB0000106B34207D1CE6844F6FF77360325F407
:102DC0004045BE433543A3F18046A6F596364FEA0B
:102DD000B626072E0DD8012707FA06F616F0E50FDE
:102DE0001FBF24F44044D1E9056744EA861444EA4D
:102DF000871448F6FF46CFF6FF660CEA060747EA57
:102E00000E275C60DF614F6809691F641D62DF691E
:102E100047F40067DF61DF6927F48067DF617FE0E7
:102E20000368D3F820C01A6AA3F1804722F48032E5
:102E30001A621A46A7F596375D6852F8508FD1F896
:102E400000E08E684FEAB727072F09D80124BC405D
:102E500014F0E50F1EBF4C6925F4803545EA0425C2
:102E60002CF4003747EA06474FF68C76CFF6FE760D
:102E7000033606EA080646EA0E065D601E654E68E1
:102E800009699E641F621F6D47F008071F651F6D6B
:102E900027F004071F6544E00121002280F83C2050
:102EA0000846BDE8F08100BF0368D3F820C01A6A65
:102EB000A3F1804722F480121A621A46A7F59637CA
:102EC0005D6852F8508FD1F800E08E684FEAB7275E
:102ED000072F09D80124BC4014F0E50F1EBF4C6930
:102EE00025F4802545EA84252CF4001747EA065787
:102EF00048F6FF46CFF6FF6606F5407606EA080676
:102F000046EA0E265D601E654E680969DE641F6232
:102F10001F6D47F400671F651F6D27F480671F65ED
:102F200009021368194311600021002280F83C2037
:102F30000846BDE8F0810000002804BF012070476A
:102F400010B5044690F83D0028B9002084F83C00F4
:102F5000204600F023F8022084F83D002068211D5F
:102F600000F0CCFA012084F8480084F83E0084F890
:102F70003F0084F8400084F8410084F8420084F85F
:102F8000430084F8440084F8450084F8460084F83F
:102F9000470084F83D00002010BD000080B582B0DD
:102FA000006842F60041C4F2010188421CBF02B031
:102FB00080BD41F26000C4F202000168002241F4C9
:102FC000006101600068002100F400600190019838
:102FD0001920FEF751FB192002B0BDE88040FEF732
:102FE0003BBB00007047000061B10A1F4FEAB2020C
:102FF000032A11D8DFE802F00214181C00F13F0385
:1030000018E000BF90F83E20012A1CBF0120704745
:10301000022280F83E202CE000F143030AE000BFCA
:1030200000F1400306E000BF00F1410302E000BFF1
:1030300000F142031B78012B1CBF01207047032ABB
:1030400008D8DFE802F0030B0F1300BF022280F85C
:103050003F200EE0022280F843200AE0022280F89E
:10306000402006E0022280F8412002E0022280F89F
:103070004220026801F01F010120136A00FA01F1E9
:103080008B431362136A0B43A2F18041A1F5963181
:103090004FEAB1210629136244D8884010F0650F29
:1030A00040D0506C42F6FF31C4F2010140F40040C0
:1030B0008A42506410DCB2F1804F1FD040F20040D1
:1030C000C4F20000824219D040F60000C4F20000B1
:1030D000824213D01FE000BF42F60040C4F201005C
:1030E00082420BD044F20000C4F20100824205D0BB
:1030F00043F20040C4F2010082420CD190680721E3
:10310000C0F20101014006294FF0000008D0B1F5DE
:10311000803F08BF7047106840F001001060002039
:10312000704700BF42F6FF30C4F201008242C2DDA8
:1031300043F6FF70C4F20100824207DC42F6004011
:10314000C4F201008242D3D1D8E700BF44F20000AC
:10315000C4F201008242D1D044F60000C4F2010062
:10316000824202BF506C40F400405064D3E700003C
:103170007047000070470000FEE7000010B58CB0FB
:1031800040F27C00C2F200004FF0A04100244FF456
:10319000403280E81600052101624FF4A4614FF42B
:1031A000806201234FF0040CC0E90B124FF48051F0
:1031B0000B94CDE90944CDE90744CDE90544CDE9B7
:1031C0000344CDE90144C0E90344C0E9053C8483DC
:1031D00080F8244080F83830C16380F84040FDF723
:1031E000DDFB002818BFFDF793F940F27C00C2F226
:1031F000000009A90994FDF791F9002818BFFDF70F
:1032000087F90220C0F23040019006200290012090
:1032100003907F200490042005900020069040F247
:103220007C00C2F2000001A9FDF7D8F9002818BF00
:10323000FDF76EF90420C0F6600001900C200290AA
:1032400040F27C00C2F2000001A9FDF7C7F9002896
:1032500018BFFDF75DF90820C0F6904001901220DC
:10326000029040F27C00C2F2000001A9FDF7B6F91D
:10327000002818BFFDF74CF91020C1F2C0000190E2
:103280001820029040F27C00C2F2000001A9FDF774
:10329000A5F9002818BFFDF73BF92020C1F2F04046
:1032A00001904FF48070029040F27C00C2F2000066
:1032B00001A9FDF793F9002818BFFDF729F90CB013
:1032C00010BD000080B582B041F24800C4F2020097
:1032D0000168002241F004010160016801F004016D
:1032E00001910199016841F001010160006800212C
:1032F00000F00100009000980B20FEF7BDF90B20B4
:1033000002B0BDE88040FEF7A7B9000080B540F2EA
:10331000481046F20041C2F20000C4F2000100224F
:10332000C0E900124FF0100C01230221C0E9022273
:10333000C0F80F20C0E905C3C0E90711C0E909338F
:10334000C0E90B33C0E90D22C263FDF7B3FE0028CC
:1033500008BF80BDBDE88040FDF7DAB883B041F218
:103360004C00C4F20200016841F0200101600168D4
:1033700001F0200102910299016841F00101016010
:10338000016801F0010101910199016841F0020118
:103390000160006800F002000090009803B07047E0
:1033A000B0B598B0002401A83421CDE91644CDE988
:1033B0001444CDE91244CDE91044CDE90E44FCF7A4
:1033C0007BFF40F2AC1042F60041C2F20000C4F2B2
:1033D00001012022C0E9001400F1080140F28F131E
:1033E00001254FF0800C81E83C10FFF7A5FD002877
:1033F00018BFFDF78DF840F2AC10C2F20000FFF7E5
:1034000085FB002818BFFDF783F82020159040F2B7
:10341000AC100024C2F2000015A9CDE91644FEF755
:1034200091FF002818BFFDF773F860200E90C820A8
:10343000CDE90F0440F2AC10C2F200000EA9082240
:10344000CDE91144CDE91344FFF794FB002818BFE0
:10345000FDF75EF840F28F100F9040F2AC1000259F
:10346000C2F200000EA90C220E95FFF7B3F9002856
:1034700018BFFDF74DF840F2AC14C2F2000420462C
:10348000FEF754FF0820CDE904054FF40050CDE9C4
:1034900006054FF00070CDE90A0501A92046CDE9E7
:1034A00001550395CDE90855CDE90C55FEF7D6FE3B
:1034B000002818BFFDF72CF840F2AC10C2F2000053
:1034C000FFF73CF918B0B0BDFEE70000FEE70000D2
:1034D0007047000070470000FEF760B84EF6885055
:1034E000CEF20000016841F47001016070470000F5
:1034F00040F2AC10C2F20000FFF73AB880B540F2DB
:10350000FF7C0268C4F2000C604521DD40F6000338
:10351000C4F20003984224D043F20043C4F20103F2
:1035200098421ED042F60043C4F20103984218D0DC
:1035300043F2FF33C4F2010398421CDC604529DCEE
:10354000B0F1804F3CD040F20043C4F2000335E0BC
:10355000B0F1804F05D040F20043C4F2000398421E
:10356000E6D14B6822F070021A4343F2FF33C4F2F3
:1035700001039842E2DD44F2FF33C4F201039842B2
:1035800012DC43F20043C4F20103984218D044F223
:10359000000311E040F60003C4F2000398420FD08C
:1035A00042F6004308E000BF44F60003C4F2010302
:1035B000984205D044F20043C4F20103984203D17B
:1035C000CB6822F440721A434B6922F0800E8A685D
:1035D00043EA0E03D1F800C00360C262A0F180424A
:1035E000A2F596324FEAB222072AC0F828C007D8BF
:1035F000012303FA02F212F0E50F1CBF096901630F
:10360000012141610169C90708BF80BD016921F03D
:103610000101016180BD0000FEE7000094B0FDF7EC
:10362000CBFF002400200C94CDE90A44CDE90844E6
:10363000FEF75EF801204FF48031032506900791D4
:103640000221CDE90E501420CDE9100106A80D91FC
:10365000CDE91211FEF790FB20B1EFF3108072B6A6
:10366000FEE700BF0F20CDE9010501A80421CDE947
:1036700003440594FEF710FA20B1EFF3108072B600
:10368000FEE700BFFFF76AFEFFF71CFEFFF776FDBF
:10369000FFF73CFEFFF784FE40F2AC14C2F20004D8
:1036A00020460821FFF7A0FC20460821FEF79CFEDB
:1036B0002046FEF711FF40F27C0040F27001C2F29A
:1036C0000000C2F200010522FDF704FB3125C726E8
:1036D0002068C5634FF47A70FDF7D8FC2068C66394
:1036E0004FF47A70FDF7D2FCF2E7F1EE100A4FF6D4
:1036F000FF71C0F2C03120EA010040F04070E1EEFD
:10370000100A7047000000000000000001020304DE
:1037100006070809383700080000002010000000E4
:10372000140200084837000810000020F0070000CD
:10373000300200080000000010000000010000003E
:083740000024F4000000000069
:04000005080001D915
:00000001FF
