:020000040800F2
:10000000400900207902000881420008A53D00084F
:100010007D420008ED0500081D47000800000000B3
:100020000000000000000000000000006145000822
:100030005906000800000000A5430008D14500084B
:10004000930200089302000893020008930200083C
:10005000930200089302000893020008930200082C
:100060009302000893020008930200084D0600085E
:10007000930200089302000893020008930200080C
:1000800093020008000000008103000893020008AA
:10009000930200086906000875060008930200082C
:1000A00093020008E9450008930200089302000843
:1000B000F545000893020008930200089302000827
:1000C00093020008930200089302000893020008BC
:1000D00093020008930200089302000893020008AC
:1000E000930200089302000893020008930200089C
:1000F0009302000893020008930200080000000029
:1001000000000000930200080000000093020008B5
:100110009302000800000000930200089302000808
:10012000930200089302000893020008930200085B
:100130009302000800000000000000009302000885
:100140009302000893020008000000000000000075
:10015000000000000000000000000000000000009F
:1001600000000000000000000000000093020008F2
:1001700093020008000000000000000000000000E2
:1001800000000000930200080000000000000000D2
:10019000000000000000000000000000000000005F
:1001A0000000000000000000930200089302000815
:1001B0009302000893020008930200080000000068
:1001C0000000000093020008000000000000000092
:1001D000930200089302000800F002F800F03CF8D7
:1001E0000AA090E8000C82448344AAF10107DA4592
:1001F00001D100F031F8AFF2090EBAE80F0013F0A8
:10020000010F18BFFB1A43F001031847884C000088
:10021000A84C0000103A24BF78C878C1FAD8520719
:1002200024BF30C830C144BF04680C607047000070
:100230000023002400250026103A28BF78C1FBD8EF
:10024000520728BF30C148BF0B6070471FB504F08C
:10025000FFFD1FBD10B510BD00F058F81146FFF7A7
:10026000F5FF04F05DFA00F076F803B4FFF7F2FF53
:1002700003BC00F07DF800000948804709480047AA
:10028000FEE7FEE7FEE7FEE7FEE7FEE7FEE7FEE746
:10029000FEE7FEE704480549054A064B70470000A3
:1002A000D5450008D901000840030020400900207E
:1002B00040050020400500204FF0000200B5134625
:1002C00094469646203922BFA0E80C50A0E80C5076
:1002D000B1F12001BFF4F7AF090728BFA0E80C5027
:1002E00048BF0CC05DF804EB890028BF40F8042B20
:1002F00008BF704748BF20F8022B11F0804F18BF8D
:1003000000F8012B7047704770477047754600F042
:100310002BF8AE4605006946534620F00700854697
:1003200018B020B5FFF7B6FFBDE820404FF000063B
:100330004FF000074FF000084FF0000BAC46ACE860
:10034000C009ACE8C009ACE8C009ACE8C00921F0BC
:1003500007018D46704710B50446AFF30080204674
:10036000BDE81040FFF781BF0048704768000020DB
:1003700001491820ABBEFEE72600020070470000CE
:1003800040F2BC10C2F2000000F0FEBB0000000012
:1003900010B540F28814C2F20004208D04F058FB1E
:1003A0009FED230B53EC102B04F066FB9FED220B0B
:1003B00053EC102B04F0A4FA04F070FAA060608DE6
:1003C00004F046FB9FED1E0B53EC102B04F054FB86
:1003D0009FED1D0B53EC102B04F092FA04F05EFA23
:1003E0006060A08D04F034FB9FED190B53EC102BD3
:1003F00004F042FB9FED180B53EC102B04F080FA35
:1004000004F04CFA2061E08D04F022FB9FED140B08
:1004100053EC102B04F030FB9FED130B53EC102B1F
:1004200004F06EFA04F03AFAE06010BD00BF00BFBD
:10043000E7525C55F65D813FD7A3703D0AD7E33F95
:100440007E6FD39FFD48813FEC51B81E85EBE13FA5
:10045000658D7A884677703F7B14AE47E17A84BF1A
:10046000274EEE77280A943FF6285C8FC25543C08A
:100470000146806AC36DC26D13F0500F08D0D206DA
:1004800048BF00F07FBB406D426B0846104700BF7D
:1004900042F40071C16501680B68CA681B0703D488
:1004A000910707D500F060BB12F4406FFAD1C9681C
:1004B0008904F7D4C16D21F48071C165C16DC9048F
:1004C00048BF00F051BBC16D41F00101C16500F0B2
:1004D0004BBB0000806AC16D41F04001C165016EF7
:1004E00041F00401016600F04DBB0000806A00F09D
:1004F00047BB000070B582B004460020019021681F
:100500008A68D20711D14FF6C076C7F6FF768868A1
:1005100006F17F0210420BD0E06D40F01000E06564
:10052000206E40F001002066012002B070BD00BFC7
:100530008868304040F00100886040F20830C5F221
:1005400000000068000221D401F056FD21680A680D
:10055000D20717D1054602E00868C00712D18868A3
:10056000C00704D18868304040F00100886001F085
:1005700043FD401B21680328EED30868C007EBD178
:10058000CAE700BF002002B070BD00BF40F24800C3
:10059000C2F20000006842F663518009C0F23E5189
:1005A000A0FB0101880900EB40000C2101EB800059
:1005B000019001980028C7D0019801380190019856
:1005C0000028C1D001980138019001980028BBD0C3
:1005D00001980138019001980028B5D001980138A0
:1005E000019001980028E7D1AEE70000FEE7000087
:1005F00080B582B040F2C801C2F200014A7862B907
:1006000000224FF408734FF0080CC1E90A22C1E937
:100610000532C1E9072C01224A7040F20112009212
:100620000022038801920279B0F805008DF80420B9
:10063000ADF8050040F288201431C2F200006A468D
:10064000ADF8023000F0ECFF02B080BD40F228208F
:10065000C2F2000000F0E4BD70470000EFF310802C
:1006600072B600BFFEE7000040F28820C2F2000030
:1006700001F034B940F28820C2F2000001F02EB936
:10068000B0B588B00020CDE9020040F221200690EC
:1006900040F22220079040F288200125C2F200009B
:1006A00002A9CDE9045501F015F8002818BFFFF79D
:1006B000D5FF40F28824C2F2000420460221022223
:1006C0000123009501F036F820460121002200F0B8
:1006D00021FF002818BFFFF7C1FF08B0B0BD000020
:1006E000704700007047000070470000704700002E
:1006F0007047000070B582B090F85820012A03D1ED
:100700000221084602B070BD0022019200920268E8
:10071000B2F1A04F30D140F208324FF6006C4FF6E4
:100720000055C5F20002CFF6FF7CCFF6FF7552F8F8
:100730000C40535923435B071ED4D1F800E01368E3
:10074000BEF1000F23F4604422D04B6890F838606B
:10075000234343EA46331360535952F80C60334342
:10076000DB0723D11368896840F61F76B34341EA5B
:100770000E01194317E000BFC16D41F02001C165B2
:100780000121002280F85820084602B070BD00BF49
:100790001460515952F80C301943C90708D1116837
:1007A00040F61F73994311600021EAE70021E8E752
:1007B0000021E6E7F0B581B00022009290F85820C1
:1007C000012A03D10221084601B0F0BD01230768C8
:1007D00080F85830BB685B0736D4D1E900531F2638
:1007E000C3F3012407EB8404226B03F01F039E4034
:1007F000B243C5F3846606FA03F31A432263BA6868
:10080000BB6802F0040203F00803D21840F0BD8078
:100810000A6807F114030426C2F34064D1F808E023
:1008200006EAD25C53F82450C2F304540722A240D3
:10083000BEF1004F25EA02050CD143F80C501A68AE
:1008400042F000430EE000BFC16D41F02001C165E0
:10085000012182E10EFA04F22A4343F80C201A68BF
:1008600022F000437B61D1E90434FD68042B5FD1A1
:100870003A6E3A6E0B68C2F3846293FAA3F6C3F33E
:10088000846C6FF3DF43B6FA86F5002B2C464FF6E7
:10089000FF7E08BF6446A242C0F2070E0CD13A6E3A
:1008A00022F000423A660A6802EA0E03C2F3846C40
:1008B00092FAA2F2B2FA82F57A6E7A6E002BC2F345
:1008C00084622C4608BF6446A2420CD17A6E22F0A4
:1008D00000427A660A6802EA0E03C2F3846C92FA56
:1008E000A2F2B2FA82F5BA6EBA6E002BC2F384623B
:1008F0002C4608BF6446A2420CD1BA6E22F00042D8
:10090000BA660A6802EA0E03C2F3846C92FAA2F293
:10091000B2FA82F5FA6EFA6E002BC2F3846208BF57
:100920006546AA4231D1FA6E22F00042FA662CE006
:10093000062202EA95020E6807F1600504FA02FC3D
:1009400055F823404FF20002C0F2FF3206F0F8469D
:10095000224046EA0C06324342F0004245F823208A
:100960000A698B6955F8226026F08076334345F892
:1009700022300A690B7F55F82260012B26F00076A1
:1009800008BF06F1007645F82260BA68D20750D158
:100990000C68CA68D7F8B06023466FF3DF4326EAD5
:1009A000030C4FF6FF7602F01805C0F20706EE4082
:1009B00000252640C4F27F0546EA0C06AA42C7F885
:1009C000B06036D193B194FAA4F2B2FA82F2013255
:1009D00002F01E03092B02F01F0310D801229A40D7
:1009E00003EB430342EA035315E000BF012202EB8D
:1009F000946202F01E030A2B02F01F03EED30122C1
:100A000000269A4003EB4303CFF6206606EB035320
:100A10001A4342F00073C3F3406607EB86068A6808
:100A20007569C3F3045307249C40A5439A402A43A5
:100A3000726109680022C8F20802114254D040F2E3
:100A4000083CC5F2000CDCF800300022CCF2213268
:100A5000914203F0E07404D01022C9F2C002914226
:100A600044D119024FF0000177D4B7F1A04F74D1EF
:100A7000DCF8001042F6635221F0E071214341F4AA
:100A80000001CCF8001040F24801C2F200010968F0
:100A9000C0F23E528909A1FB0212910901EB41010A
:100AA0000C2202EB81010091009900293CD000BF8B
:100AB0000099013900910099002947D00099013926
:100AC00000910099002943D00099013900910099C3
:100AD00000293FD0009901390091009900294FF079
:100AE0000001E5D139E000BF002136E00022CCF260
:100AF0005272914208BF13F0807217D00022CCF6D8
:100B0000843291424FF0000108BF13F4800224D1D7
:100B1000ACF50272974220D0DCF8001021F0E071B1
:100B2000214341F480010CE0002116E0ACF5027194
:100B30008F4211D0DCF8001021F0E071214341F028
:100B40008071CCF80010002107E000BF002104E014
:100B5000002102E0002100E00021002280F858205E
:100B6000084601B0F0BD00000068B0F1A04F18BF0A
:100B7000704740F2BA10C2F20000012101707047C4
:100B800070470000704700002DE9F047056840F20B
:100B90000018C5F200082E68D5F804A0D8F808722D
:100BA0000446B0070FD51AF002000CD0E06DC00665
:100BB00003D4E06D40F40060E0652046FFF790FD4F
:100BC000256802202860700707F01F0902D51AF077
:100BD000040004D1300749D51AF0080046D0204659
:100BE00050F85C2FD20603D4026842F4007202600F
:100BF000EA6812F4406F33D12A46454508BF4FF0EA
:100C0000A0421346B9F1090F08BF2B46B9F1050FF1
:100C100008BF2B46B9F1000F08BF2B46AA4208BFF8
:100C20001346DA6892041BD42A68120718D5AA68FA
:100C300052070BD46A6822F00C026A60016821F442
:100C4000807101600168C90406D509E0E06D40F0DB
:100C50001000E06504F16000016841F001010160ED
:100C60002046FFF781FF25680C202860B00602D5DA
:100C70001AF0200004D170062CD51AF0400029D0BB
:100C8000204650F85C2FD20603D4026842F400528A
:100C900002602946EF6CEA68454508BF4FF0A04165
:100CA0000B46B9F1070F08BF2B46B9F1060F08BF75
:100CB0002B46B9F1000F08BF2B46A94208BF0B46CF
:100CC000DB6817F4C07F6BD02046FFF70BFD25686B
:100CD0006020286030060CD51AF0800009D0E06D45
:100CE00040F48030E065204600F0ACF925688020B3
:100CF0002860F0050DD51AF480700AD0E06D40F43C
:100D00000030E0652046FFF7F1FC25684FF4807065
:100D10002860B0050DD51AF400700AD0E06D40F4DB
:100D20008020E0652046FFF7E3FC25684FF4007063
:100D30002860F0061AD51AF0100017D0E06B38B111
:100D4000B9F1000F4ED0D8F8080210F4604F0BD064
:100D5000E06D40F48060E065206E40F002002066A7
:100D60002046FFF70FFF256810202860700558BF48
:100D7000BDE8F0871AF4806010D0E06D4FF4806118
:100D800040F48040E065206E40F008002066204678
:100D90002960BDE8F047FFF7A7BC00BFBDE8F087BA
:100DA000990106D502F4406103F4005289187FF4DA
:100DB0008BAF296849067FF587AF13F400117FF4E4
:100DC00083AFA968090711D4696821F060016960DF
:100DD000016821F4805101600168C9053FF574AFD5
:100DE0000AE000BFE868C007B2D1BDE7E06D40F09F
:100DF0001000E06504F16000016841F0010101604C
:100E000062E70000B0B582B00446002001904CB10A
:100E1000E06D58B121688868800012D48868C000ED
:100E200019D54CE0012002B0B0BD00BF204600F053
:100E30000BF90020206684F858002168886880003B
:100E4000ECD588684FF6C072C5F6FF721040886016
:100E50008868C00033D44FF6C0728868C5F6FF7248
:100E600002F18052104000F18050886040F248004A
:100E7000C2F20000006842F663528009C0F23E529E
:100E8000A0FB02029009022202EB400001900198AF
:100E9000A8B100BF019801380190019878B101987C
:100EA00001380190019850B10198013801900198E2
:100EB00028B101980138019001980028EAD188688A
:100EC000C00009D4E06D40F01000E065206E40F0F5
:100ED00001002066012000E000208A68E36D02F036
:100EE000040203F01003D218E26D71D122F4817272
:100EF0000232E2658A68D2071AD140F2083C4FF606
:100F000000534FF60062C5F2000CCFF6FF73CFF628
:100F1000FF725CF803305CF802201A43D20707D155
:100F20006268DCF8003023F47C131A43CCF800200C
:100F3000627FE36B43EA4232D4E902C31A4394F876
:100F4000243042EA0C02012B42EA034207D1D4F8D2
:100F500028C00023CFF6FE7303EB4C431A43E36A29
:100F600033B103F47873D4F830C01A4342EA0C0268
:100F7000D1F80CC044F20703CFF6F07303EA0C0378
:100F80001A43CA600A69636B22F040621A430A611D
:100F90008A68120745D494F83820237F520042EA29
:100FA000833CCB6844F2020223EA020242EA0C02CA
:100FB000CA6022690B698AB143F480330B61D1F8AE
:100FC000C0C043F6FF732CEA03031A430EE000BFD0
:100FD00042F010010120E16502B0B0BD23F480327F
:100FE0000A61D1F8C02043F6FF739A43C1F8C020CC
:100FF00094F840300A69012B10D140F2FD7322EAC7
:10100000030CD4E91132D4E913E543EA0C031A4383
:1010100042EA0E022A4342F0010201E022F00102FC
:101020000A6162690B6B012A23F00F0202D1236A65
:10103000013B1A430A63E16D012262F30101E1659C
:1010400002B0B0BD7047000070B598B004460020F3
:10105000CDE9160002A804304021FFF72DF92068E1
:10106000B0F1A04F02D018B070BD00BF4FF40040E7
:1010700002904FF00050119002A801F00BF90028E7
:1010800018BFFFF7EBFA41F24C00C4F2020001680E
:10109000002641F400510160016801F40051019102
:1010A0000199016841F001010160006813A900F095
:1010B0000100019001980F201390032014904FF02D
:1010C0009040159600F096FE40F228250820C2F2C6
:1010D0000005C4F2020005214FF4807385E8430047
:1010E00005F114004FF4806C4FF0200E80E808509A
:1010F0004FF40050802228622846C5E9036200F0C0
:10110000E5F8002818BFFFF7A9FA122000210022F5
:101110006565AC6200F0E4FF122000F0D1FF18B06A
:1011200070BD00002DE9F04140F200170446C5F201
:101130000007D7F80802236890469B685A0704D432
:101140000E4694F85810012902D10220BDE8F08122
:1011500000F01F050120092D84F858005AD8A84036
:1011600040F22121084255D02046FFF7C3F928B1AB
:10117000002184F85810BDE8F08100BF2168E06DBF
:1011800040F601729043B9420A4600F5807008BFEC
:101190004FF0A0428A42E06518BF002D03D1E06DF8
:1011A00020F48010E065E06D40F27143C0044FF020
:1011B000000044BF206E20F006002066606D40F203
:1011C000ED47C0F60003C0F6000740F2D545002207
:1011D000C0F60005C0E90B371C2345630B6084F89B
:1011E00058204A68434642F010024A60CA6842F0FA
:1011F0000102CA604031324600F006F921684FF61C
:10120000C0738A68C7F6FF731A4004328A60BDE86B
:10121000F08100BF002084F858000120BDE8F08173
:10122000B0B5D0E910C30268DCF8001003F01F036A
:101230000424D2F800E09C400C4218BF1EF00405C4
:1012400022D102249C400C4218BF1EF0020529D175
:10125000D940090724D51EF0080108BFB0BD1168A8
:1012600021F00E011160012101FA03F2CCF80420F3
:10127000C16380F82510416B002280F8242079B1E9
:10128000BDE8B040084700BF1168890603D4116863
:1012900021F004011160CCF80440016B0029EFD16A
:1012A000B0BD00BF1168890606D4116821F00A019B
:1012B0001160012180F82510CCF80440C16A002299
:1012C000002980F82420DBD1EAE7000000284FF055
:1012D000010100F096802DE9F04F40F2000CC4F2BD
:1012E000020C02684FF6F8330CF5816ECBF6FD73F5
:1012F000724538BF03F580634CF6CD441344CCF6F9
:10130000CC44A3FB04380CF580656FF00307D0E9EB
:1013100002BAD0F810903CBF0025C4F2020507EADB
:1013200098076FF00703C0E91057022553FA82F3BC
:1013300080F82550A3FB0434156847F6F07325EABE
:10134000030343EA0B0343EA0A03456943EA09033B
:1013500086692B43C5693343066A2B4333431360C5
:101360000CF50263724538BF0CF5006372454FF00F
:10137000060202EB141238BF22093B440CF5086741
:1013800002F01F0240F6840C01FA02F2BBF5804F16
:10139000C4F2020CC7648364026505D10021416078
:1013A0001960CCF800201DE0416801F07F0E013982
:1013B00003294FF00001C3F800E0CCF8002011D859
:1013C000AEF101020CEB820747F87C1F02F01F010F
:1013D000012202FA01F30CF1BC023946CCF8C0300C
:1013E00002E000BF0022002300F1540C8CE80E0044
:1013F00000210122C16380F8252080F82410BDE877
:10140000F04F0846704700002DE9F04190F824C0E5
:10141000BCF1010F43D04FF0010C80F824C090F8CC
:1014200025C0BCF1010F37D14FF0020C80F825C068
:101430004FF0000CC0F83CC0D0F800C000F14C0EDA
:101440009EE83040DCF80060BEF1000F26F0010697
:10145000CCF8006065601CBFD0E916456560D0E936
:101460001076012506F01F068468B540D0F830805C
:101470007D60CCF804300B46102C04BF13460A469E
:10148000CCF80830CCF80C20DCF80010B8F1000FD4
:1014900008D041F00E010DE0002180F82410022058
:1014A000BDE8F08121F00401CCF80010DCF8001058
:1014B00041F00A01CCF80010806C0168C90303D523
:1014C000016841F480710160BEF1000F05D0DEF8C3
:1014D000000040F48070CEF80000DCF8000040F01E
:1014E0000100CCF800000020BDE8F081B0B5044652
:1014F00000F082FD054640F23800C2F2000040686C
:10150000611C18BF044400BF00F076FD401BA042E0
:10151000FAD3B0BD10B590F85C30013B012B69D80F
:10152000006811F0070ED0F858C00CF0010300D08D
:101530001BB311F0380F02D01CF002041DD011F4BF
:10154000E07F02D01CF0040417D011F4F05F02D049
:101550001CF0080411D011F4604F02D01CF01004EC
:101560000BD011F4403F02D01CF0200405D011F440
:101570007C0F06D01CF0400403D1C46D44F001047C
:10158000C465BEF1000F18BF002B3BD111F0380F1E
:1015900018BF1CF0020335D111F4E07F18BF1CF016
:1015A00004032FD111F4F05F18BF1CF0080329D1F8
:1015B00011F4604F18BF1CF0100323D111F4403F09
:1015C00018BF1CF020031DD111F47C0F18BF1CF0B4
:1015D000400317D10B061BD4CB0504D5D0F8E0305F
:1015E0001A43C0F8E02000F15402002013681943A8
:1015F000116010BD00F1600201200221136819433F
:10160000116010BDC36D43F00203C3650B06E3D543
:10161000D0F8DC301343C0F8DC30CB05E3D5DDE790
:101620002DE9F04190F85C30022B43D1D0F80080D6
:10163000D8F8C4309B0245D4D8F8C440D1E9013E63
:101640000D69002B0B6845EA0E051ABF2B4343F0CA
:10165000804E45EA834E01F11407C4F3014CB8CF24
:1016600045EA0765CE682C432343456D43EA0644AB
:101670000CEBCC0605EBC60345F836E05C60CF68A2
:101680007FB144F68465083303320024C0F60005B8
:10169000171957F8037C1F51CF680434EF5DBC4223
:1016A000F6D3012101FA0CF1C8F8CC1081650020B5
:1016B000BDE8F081016E41F0080101660120BDE83E
:1016C000F08100BF016E41F4007101660120BDE8A8
:1016D000F081000080B590F85C20013A012A13D80F
:1016E0000A68BAB101F1040ED1E904319EE8045050
:1016F000406C43EA4E7E41EA8C7100EBC20340F835
:1017000032E00020596080BD016E41F002010166A7
:10171000012080BDD1E90323D1E901CED206496978
:1017200042EA8E7242EA0342006C114340F82C10E8
:10173000002080BD80B590F85CC0BCF1010F13D1D2
:1017400000689200D0F880C0DDF808E042EA01119C
:1017500041EA43012CF03F0C41EA0E0141EA0C0141
:10176000C0F88010002080BD016E41F004010166C8
:10177000012080BD70470000704700002DE9F04354
:1017800090F85C70022F17D1046840291CD1D4F85E
:1017900090703F0700F09880D4F89070D4F8906073
:1017A0003D0AF60104D5D4F88070C7F340273D44C4
:1017B00000F148071AE000BF016E41F00801016620
:1017C0000120BDE8F08300BFD4F898703F077BD0BC
:1017D000D4F89870D4F898603D0AF60104D5D4F88E
:1017E0008070C7F300273D4400F14C0705F0030C5F
:1017F0003F680CEBCC0657F8365007EBC60E15F0D9
:101800008045556057F8365025F0604408BFC5F351
:101810008A44146057F8365005F00055956057F823
:10182000364004F000441461BEF80440D461BEF8B0
:10183000064014F00F04D460DEF8044004F4801471
:101840005461DEF8044004F4001494619EF80740EB
:1018500004F07F041462DEF804404FEAD47454624A
:1018600027D044F684680024C0F600080EEB040676
:10187000377A651C1F55D76818F80770BD4218D213
:10188000757A1F197D70D56818F80590A51C4D450F
:101890000FD2B57ABD70D56818F80590E51C4D4596
:1018A00007D2F57A0434FD70D56818F80550AC42BB
:1018B000DCD3006840290CBFC0F894C0C0F89CC0BD
:1018C0000020BDE8F08300BF016E41F48071016625
:1018D0000120BDE8F0830000704700002DE9F04FC3
:1018E00085B004460068016D426DD0F850B0456D7A
:1018F000076D466D036D01EA02080493436D03937F
:10190000036D0293436D0193D0F854A0D0F850902A
:101910005FEA496307D51AF0400104D04021016510
:101920002046FFF7D9FF0BEA050B5FEAC95008F420
:10193000E0550ED51AF480700BD02068D0F8D8107E
:10194000D0F8E02011404FF480720265204600F08C
:1019500049FA37400BF007062DB120682946056586
:10196000204600F043FA07F038052EB120683146D2
:101970000665204600F0ECF92DB120682946056582
:10198000204600F013FA5FEA895009D51AF4007076
:1019900006D020684FF400710165204600F028FA57
:1019A0005FEA09600DD51AF080000AD02068D0F8EF
:1019B000D410D0F8DC20114080220265204600F0CF
:1019C00013FA5FEA894009D51AF4005006D020685E
:1019D0004FF400510165204600F002FA5FEA094029
:1019E000DDE9011000EA010509D51AF4004006D02E
:1019F00020684FF400410165204600F0EFF9DDE971
:101A0000031008405FEA494105F460210AD51AF441
:101A1000804207D022684FF480431365226E42F063
:101A20008002226600F4710521B12068016520461C
:101A3000FFF7A2FE25B120680565206E28432066C9
:101A4000206E28B1204605B0BDE8F04FFFF792BEEA
:101A500005B0BDE8F08F000070B5D8B1044690F82D
:101A60005C0028B9002084F85D00204600F018F9D9
:101A70002068816921F01001816100F0BDFA0546FE
:101A800020688169090707D500F0B6FA401B0B28CA
:101A9000F6D312E0012070BD816941F0010181613E
:101AA00000F0AAFA054600BF21688869C0070DD179
:101AB00000F0A2FA401B0B28F6D3206E032140F061
:101AC00001002066012084F85C1070BD4AF20040DD
:101AD0008A69C4F20000A0F5804342F002029942F4
:101AE0008A6105D162684CF20013CFF6FF73C250D1
:101AF000227C8B69012A23F0400318BF40338B619D
:101B0000627C8B69012A23F4804308BF03F580437C
:101B10008B61A27C8B69012A23F4805318BF03F5E3
:101B200080538B618A69D4E902E322F4407545EA67
:101B30000E058D618D6925F0A4058D610D6925F077
:101B400010050D61A3B1012B0ED0022B09D08D69B8
:101B5000032B45F080058D610D6945F010050D6181
:101B600006D1202301E000BF04238D692B438B6144
:101B7000D4E90535D4E907266FF0FF0C013D0CEBE5
:101B8000022242EA4562751E2A430025CFF6FF7500
:101B900005EB03431A43BEF5407FCA6110D1D4E977
:101BA00009E3D4E90B62013B0CEB062633436FF0EB
:101BB0000F0606EB02121A4305EB0E431A43CA60E6
:101BC00004F134064CCED1F8C0502E43C1F8C060A9
:101BD0002064D1F880604AF2704526F4F816C4F209
:101BE000000546EA0242C1F880206564D1F88020F1
:101BF00022F0706242EA0362C1F8802005F14001E0
:101C0000A16405F58C71E16405F5F871216505F5B0
:101C100002716165002105F5037200BFC0E9001182
:101C2000C0E90211C0E90411C0E90611C0E90811B8
:101C3000C0E90A11C0E90C11C0E90E11C0E9101188
:101C4000C0E91211C0E91411C0E91611C0E9181158
:101C5000C0E91A11C0E91C11C0E91E11C0E9201128
:101C6000C0E92211C0E92411C0E92611C0E92811F8
:101C7000C0E92A11C0E92C11C0E92E11C0E93011C8
:101C8000C0E93211C0F8D010904200F1D400C5D3A1
:101C900000200121A065206684F85C1070BD000062
:101CA00010B596B00446684604304021FEF704FBA8
:101CB000206846F20041C4F20001884202D016B00A
:101CC00010BD00BF4FF4805000904FF000700C909A
:101CD000684600F0DFFA002818BFFEF7BFFC41F2AB
:101CE0004C00C4F20200C16841F00071C160C168DB
:101CF00001F0007111911199016841F00201016038
:101D0000006811A900F00200119011984FF4407082
:101D10001190022012900020CDE9130009201590A7
:101D200040F20040C4F6000000F064F815200221E3
:101D3000002200F0D5F9152000F0C2F9162002218A
:101D4000002200F0CDF9162000F0BAF916B010BD4F
:101D500010B582B0016846F20042C4F2000291421E
:101D600002D002B010BD00BF40F2C804C2F20004AD
:101D700004F138026B464021FFF700FD0028F0D146
:101D800040F24000C2F2000002780021002A2170D7
:101D9000E7D09DF800209DF801306271BDF8022067
:101DA0002371E280017002B010BD00007047000096
:101DB00090F85C1001290BD1022180F85C100168B9
:101DC0008A6922F001028A61002101660846704793
:101DD000016E41F004010166012070477047000068
:101DE0007047000070470000704700007047000017
:101DF000704700002DE9F04F85B08E4641F2004259
:101E0000C4F60002DEF8004006219042039008BFAD
:101E10000521002C009100F0E5800398002500F1D9
:101E200038424FEAB2230098012700264FF00008FD
:101E3000052B38BF18460090CDF808E00EE000BF33
:101E4000DEF8004008F1010834FA07F106F1020655
:101E500007F1010705F1040500F0C480A7F1010CAA
:101E6000012000FA0CF314EA0309E9D0DEF804A01B
:101E70000AF0030BABF10104012C19D803990320DC
:101E8000D1F808E000FA06F202982EEA0202C468CD
:101E9000DDF808E0B44022438A604A689A43CAF3F6
:101EA000001303FA0CF31A430B464A6010E000BF1C
:101EB000039BBBF1030F0BD1DEF80820012A07D1E9
:101EC0004FF0030B0BFA06F2D04332462BE000BF73
:101ED0004FEA4800DA6801900320DEF8084000FA73
:101EE00006F39A43D84304FA06F31A43039BBBF163
:101EF000020FDA6016D16FF0030101EA5C021A44A6
:101F0000D2F820A005F01C040F21DEF81030A1400B
:101F10002AEA0101A3401943039B1162DEF804A0E1
:101F20000AF0030B019A19680BFA02F201401143FF
:101F30001960DDF808E01AF4403F3FF481AF41F248
:101F40006000C4F2020001684FF6084A41F0010146
:101F500001600168CFF6FF7A01F001010491049954
:101F60002CF0030140F2004CC4F2010C614405F076
:101F70000C030F2051F80A2000FA03F40098A24342
:101F800000FA03F31A4341F80A20DCF80810DEF8DF
:101F9000042041EA090340F20C40D40258BF21EA70
:101FA0000903CCF80830C4F201000168940241EA48
:101FB000090358BF21EA09030360DCF80410940305
:101FC00041EA090358BF21EA0903CCF80430DCF8E0
:101FD0000010D20341EA090358BF21EA0903CCF8F3
:101FE00000302DE705B0BDE8F08F00001823002A6F
:101FF00008BF2823C150704740F23830C2F20000B9
:102000000068704740F2380040F23831C2F20000F8
:10201000C2F2000140680A6810440860704700007E
:1020200080B5032000F088F80F2000F009F80028A0
:102030001CBF012080BD00F029F8002080BD0000F9
:1020400070B540F23806C2F200067168E1B104468C
:1020500040F24800C2F200004FF47A720068B2FB0E
:10206000F1F1B0FBF1F000F011FE0F2C4FF0010583
:1020700008D838B94FF0FF3021460022002500F083
:102080002FF83460284670BD012070BD82B041F247
:102090005800C4F20200816841F00101816081684A
:1020A00001F0010101910199016841F08051016045
:1020B000006800F080500090009802B000F0E0B896
:1020C000002848BF704700F01F01012202FA01F109
:1020D0004EF200124009CEF2000242F82010704782
:1020E00010B54EF60C5CCEF2000CDCF80030C3F3F9
:1020F000022E8EF00704042C28BF0424BEF1030333
:102100004FF0FF3E0EFA04F438BF0023A14399407C
:102110000EFA03F39A43114300F00F02043A6244AB
:1021200009010C3200F16043B0F1FF3FC8BF03F575
:102130006442117010BD00004EF60C51CEF2000149
:102140000A684FF6FF031A4060F30A2242F08060EB
:1021500040F0FD7008607047B0F5007F42D0002865
:1021600040F0808047F21400C4F2000050F8141CC4
:10217000C26E01F4C06122F48072B1F5806FC26654
:102180002ED150F8141C012262F34A2140F8141C8D
:1021900040F24801C2F200010968322251434DF673
:1021A0008362C4F21B32A1FB0212910C0268520539
:1021B00011D54A1C0FD0026852050CD559B10268DE
:1021C000520508D5012906D00268520503D5022917
:1021D000A1F10401EAD10068400544BF0320704723
:1021E0000020704747F21400C4F2000050F8141C9D
:1021F000C26E01F4C06142F48072B1F5806FC266B4
:10220000EED150F8141C012262F34A2140F8141C4C
:1022100040F24801C2F200010968322251434DF6F2
:102220008362C4F21B32A1FB0212910C02685205B8
:1022300011D54A1C0FD0026852050CD559B102685D
:10224000520508D5012906D00268520503D5022996
:10225000A1F10401EAD10068400544BF03207047A2
:10226000BEE700BF47F21400C4F2000050F8141C8F
:10227000022262F34A2140F8141C0020704700003B
:1022800047F20800C4F20000016841F48041016097
:10229000704700002DE9F04182B00446807841F299
:1022A00088060007C4F2020602D400202FE000BF17
:1022B00056F8300C10F080580BD156F8300C40F026
:1022C000805046F8300C56F8300C00F080500190E9
:1022D000019847F20007C4F20007386840F48070A4
:1022E0003860FFF789FE05463868C00500F1D680E2
:1022F000FFF782FE401B0228F6D90320B8F1000F39
:1023000005D156F8301C21F0805146F8301C216868
:10231000CA0713D18A0719D44A071FD40A0725D43C
:102320008A062BD44A0631D40A0637D4CA053DD4CE
:102330008A0543D44A0549D457E000BF3268636830
:1023400022F003021A4332608A07E5D53268A36897
:1023500022F00C021A4332604A07DFD53268E36884
:1023600022F030021A4332600A07D9D53268236955
:1023700022F0C0021A4332608A06D3D532686369FC
:1023800022F440621A4332604A06CDD53268A3690E
:1023900022F440521A4332600A06C7D53268E36914
:1023A00022F440421A433260CA05C1D53268236A1A
:1023B00022F440321A4332608A05BBD53268636A20
:1023C00022F440221A4332604A050ED53268A36ACD
:1023D00022F440121A43B3F5801F326005D156F83B
:1023E0007C2C42F4801246F87C2C0A050ED532680B
:1023F000E36A22F440021A43B3F5800F326005D13C
:1024000056F87C2C42F4801246F87C2CCA040ED577
:102410003268236B22F040721A43B3F1807F32603E
:1024200005D156F87C2C42F4801246F87C2C8A04A4
:102430000ED53268636B22F040621A43B3F1006F2D
:10244000326005D156F87C2C42F4801246F87C2C80
:102450004A040ED53268A36B22F040621A43B3F1EE
:10246000006F326005D156F87C2C42F4801246F899
:102470007C2C09040ED53168E26B21F040511143E8
:10248000B2F1805F316005D156F87C1C41F4803197
:1024900046F87C1C02B0BDE8F08100BFB06810F4C3
:1024A000407010D0216C88420BD0B068B16820F425
:1024B000407041F48031B160B16821F48031B16085
:1024C000B060C0070CD1B068216C20F440700843A4
:1024D000B0600020B8F1000F7FF419AF11E700BF22
:1024E000FFF78AFD054641F2883700BFB0688007D4
:1024F000E9D4FFF781FD401BB842F7D9FDE60000A3
:102500002DE9F047002865D042F2000AC4F2020A21
:102510000446DAF800000D4600F00F0088420CD2A5
:10252000DAF8000020F00F002843CAF80000DAF8BB
:10253000000000F00F00A8424CD1216841F20808C9
:10254000C807C4F2020803D1880740F1C880ADE093
:102550006068022832D0032838D158F8082C92013C
:1025600038D5D8F80420D8F8042042F20043C2F34A
:102570000312D8F804700132C0F2F403B3FBF2F294
:10258000C7F30623D8F804705A43C7F34163022700
:1025900007EB4303B2FBF3F24BF20043C0F2C44338
:1025A0009A4259D9D8F8002012F0F00F49D0890783
:1025B00052D5A16800294FD143E000BF58F8081C4C
:1025C00089035CBF0120BDE8F08707E058F8081CCC
:1025D000490503D40120BDE8F08700BFD8F80010FA
:1025E00001F00C01042937D0D8F8001001F00C01DB
:1025F000082931D0D8F8001001F00C010C292BD19A
:10260000D8F80410D8F8041042F20042C1F30311C4
:10261000D8F804300131C0F2F402B2FBF1F1C3F397
:102620000622D8F804305143C3F34162022303EB7E
:102630004202B1FBF2F14BF20042C0F2C4429142BD
:102640000AD9D8F80010082262F307114FF00109E7
:10265000C8F8001002E000BF4FF00009D8F80010E1
:1026600021F003010843C8F80000FFF7C5FC064647
:1026700041F28837D8F80000616800F00C00B0EB38
:10268000810F07D0FFF7B8FC801BB842F2D90320B6
:10269000BDE8F0872168880708D4B9F1000F1ED083
:1026A000D8F8000020F0F00017E000BF480705D57B
:1026B000D8F8000040F4E060C8F80000080706D52C
:1026C000D8F80000072262F30D20C8F80000D8F8FF
:1026D0000000A26820F0F0001043C8F80000DAF80B
:1026E000000000F00F00A8421BD9DAF8000020F02B
:1026F0000F002843CAF80000FFF77EFC064641F2AF
:10270000883700BFDAF8000000F00F00A84207D0B9
:10271000FFF772FC801BB842F4D90320BDE8F087B4
:102720002168480707D5D8F80000E26820F4E06087
:102730001043C8F80000080708D5D8F80000216940
:1027400020F4605040EAC100C8F80000D8F800004A
:1027500000F00C00042842F20040C0F2F40024D043
:10276000D8F8001001F00C0108291ED0D8F800108C
:1027700001F00C010C2917D1D8F80410D8F8041076
:10278000D8F80420C1F303110131B0FBF1F0C2F31A
:102790000621D8F804204843C2F34161022202EB2B
:1027A0004101B0FBF1F000E00020D8F8001044F641
:1027B0007462C1F30311C0F60002515C40F248029A
:1027C00001F01F0120FA01F140F23800C2F20000CE
:1027D0000068C2F200021160BDE8F047FFF730BCAC
:1027E0002DE9F04182B0002800F00681044600780F
:1027F00041F20006C007C4F2020655D120788007D6
:1028000074D42078000700F197802078400700F109
:10281000B7802078800600F10781E569002D00F07F
:102820003082B06800F00C000C2840F05981012D76
:1028300000F0E280F068216A00F003028A4240F072
:10284000DB80626A6FF00F0300F0F00103EB02120D
:10285000914240F0D180A16A00F4FE42B2EB012F18
:1028600040F0CA80E16A00F07842B2EBC16F40F0FC
:10287000C380226B0023CFF6E07303EB025200F417
:10288000C0016FF31402914240F0B680616B4FF0CB
:102890007E4202EB016100F0C06001F07E4188429F
:1028A00040F0AA80EDE100BFB06800F00C01F068D4
:1028B00008295BD0032281F00C0122EA00000844C1
:1028C000B0FA80F0400951D16068B0F5803F07D080
:1028D000B0F5A02F40F0DA80306840F480203060FE
:1028E000306840F480303060DBE000BFB068F168F1
:1028F00000F00C00042869D001F0030180F00C0006
:1029000081F002010844B0FA80F040095ED1E1682C
:102910003068002900F0D28040F480703060FFF70A
:102920006BFB05463068400500F1FC80FFF764FB57
:10293000401B0228F6D92EE16169D6F894000029DF
:1029400000F0908040F00100C6F89400FFF754FBBF
:10295000054600BFD6F8940080073FF556AFFFF755
:102960004BFB401B0228F5D915E100BF30688003FE
:102970007FF544AF606800287FF440AF3CE000BFC3
:10298000B06D10F0805808D1B06D40F08050B06547
:10299000B06D00F080500190019847F20007C4F23A
:1029A00000073868C0052BD4386840F48070386060
:1029B000FFF722FB054600BF3868C00520D4FFF7AB
:1029C0001BFB401B0228F7D9E5E000BF306840053B
:1029D00001D5E06880B17068216920F0FE4040EACE
:1029E0000160706040F23800C2F200000068FFF73A
:1029F00027FB00283FF405AF012002B0BDE8F081BD
:102A0000A068012808D0052840F0AA80D6F89000D8
:102A100040F00400C6F89000D6F8900040F00100A5
:102A2000C6F89000A9E000BFA169D6F89800002977
:102A300000F0808040F00100C6F89800FFF7DCFA53
:102A4000054600BFD6F8980080073FF5E6AEFFF7D1
:102A5000D3FA401B02284FF00300F3D902B0BDE8BF
:102A6000F08100BF20F00100C6F89400FFF7C4FA1F
:102A7000054600BFD6F8940080077FF5C6AEFFF785
:102A8000BBFA401B0228F5D985E000BF3168002859
:102A900021F480313160316821F48021316000F00F
:102AA0007F80FFF7A9FA0546306880033FF5A6AEA0
:102AB000FFF7A2FA401B6428F6D96CE020F480707E
:102AC0003060FFF799FA0546306840057FF599AE0A
:102AD000FFF792FA401B02284FF00300F4D9BDE73C
:102AE000306820F080703060FFF786FA022D0546CE
:102AF0000CD100BF3068800140F17E80FFF77CFA86
:102B0000401B02284FF00300F4D9A7E7306880018A
:102B100040F1B080FFF770FA401B02284FF003002D
:102B2000F4D99BE77068216920F0FE4040EA01601B
:102B3000706066E620F00100C6F89800FFF75CFAC6
:102B4000054600BFD6F8980080077FF566AEFFF710
:102B500053FA401B02284FF00300F3D97EE700BF71
:102B6000D6F8901021F00101C6F89010D6F8901018
:102B700021F00401C6F8901010B3FFF73DFA0546A6
:102B800041F28837D6F8900080072BD4FFF734FA4B
:102B9000401BB842F6D9032002B0BDE8F08100BF67
:102BA000FFF72AFA054600BF306880037FF526AE9E
:102BB000FFF722FA401B64284FF00300F4D94DE7D9
:102BC000FFF71AFA054641F2883700BFD6F89000A1
:102BD000800707D5FFF710FA401BB8424FF00300FB
:102BE000F4D93BE7B8F1000F7FF413AEB06D20F0DD
:102BF0008050B0650DE600BFF06848F20C01C0F2ED
:102C00009F1104F1200700EA010C8ECF6FF00F0036
:102C1000D4E90C5400EB02100022CFF6E07241EA36
:102C20000C0102EB055208436FF314024FF07E458E
:102C300040EA032005EB0465104305F07E4540EAB9
:102C4000C7602843F060306840F080703060F06802
:102C500040F08070F060FFF7CFF9044630688001E3
:102C60000FD4FFF7C9F9001B02284FF00300F5D974
:102C7000F4E600BFF0684FF6FC71CFF6EE61084055
:102C8000F060002002B0BDE8F0810000411E00208D
:102C9000B0EB116F1CBF012070474EF21002CEF254
:102CA000000251604EF62351CEF20001F0230B706A
:102CB0000721906011607047704700007047000066
:102CC00070470000B0B590F83C20012A04BF0220F4
:102CD000B0BDD1E90232D1E900CE22F47C5223F416
:102CE000705343EA020448F2FF73CEF6F0730EEA23
:102CF0000302224303F5006404EA0C0442EA040CD4
:102D00000C6903F5C05222404C6942EA0C0222438E
:102D100003F5605422400C6B03F5F04323401A4343
:102D20008B6940F2000CCC69CEF6FF7C0CEA0343C1
:102D30001443D0F800C043F20042C4F201029445AB
:102D400043EA040305D042F60042C4F2010294456E
:102D500016D14FF6FF72CDF60F421A40D1E9083E68
:102D6000D1E90A410025CDF6F04505EA0454224395
:102D700023F008531A432EF000531A4342EA01038A
:102D80000021CCF8443080F83C100846B0BD00006B
:102D9000704700000168486D40F4003200204A6529
:102DA00070470000704700007047000070B590F851
:102DB0003C20012A4FF0020247D080F83D200268F3
:102DC00043F2004C54689368C4F2010C42F6004E82
:102DD0006245C4F2010E01D0724503D14D6824F45E
:102DE00070042C434FF68F75CFF6FF550E682C40BC
:102DF00042F6FF35C4F201053443AA4254600FDCA9
:102E0000B2F1804F16D040F20046C4F20006B24242
:102E100010D040F60006C4F20006B2420AD00EE01E
:102E2000724507D044F20006C4F20106B24201D056
:102E3000624504D1896823F0800319439160012120
:102E4000002280F83D1080F83C20104670BD000044
:102E500041B1082910D0042914BF00F1470200F144
:102E600045020BE090F84420012A1CBF0120704766
:102E7000022280F8442013E000F146021278012A71
:102E80001CBF012070470222082907D0042914BF63
:102E900080F8472080F8452002E000BF80F84620F7
:102EA000026801F00F000421136A01FA00F023EA1E
:102EB00000011162116A08431062506C42F6FF3142
:102EC000C4F2010140F400408A42506410DCB2F1C7
:102ED000804F1FD040F20040C4F20000824219D05F
:102EE00040F60000C4F20000824213D01FE000BF91
:102EF00042F60040C4F2010082420BD044F20000CE
:102F0000C4F20100824205D043F20040C4F2010045
:102F100082420CD190680721C0F2010101400629CC
:102F20004FF0000008D0B1F5803F08BF704710682F
:102F300040F0010010600020704700007047000062
:102F4000002804BF0120704710B5044690F83D00EA
:102F500028B9002084F83C00204600F023F8022025
:102F600084F83D002068211D01F04AFB012084F80F
:102F7000480084F83E0084F83F0084F8400084F85C
:102F8000410084F8420084F8430084F8440084F847
:102F9000450084F8460084F8470084F83D0000208E
:102FA00010BD000080B582B00068B0F1804F1CBF3A
:102FB00002B080BD41F25800C4F202000168002254
:102FC00041F0010101600068012100F00100019061
:102FD00001981C20FFF784F81C2002B0BDE8804057
:102FE000FFF76EB890F83D1001291CBF0120704713
:102FF000022180F83D10016842F6FF30C4F2010062
:1030000081420FDCB1F1804F1ED040F20040C4F28B
:103010000000814218D040F60000C4F20000814256
:1030200012D01EE042F60040C4F2010081420BD0F3
:1030300044F20000C4F20100814205D043F2004096
:10304000C4F2010081420CD188680722C0F201025B
:103050000240062A4FF0000008D0B2F5803F08BFBA
:103060007047086840F001000860002070470000C9
:1030700090F83D1001291CBF01207047022180F803
:103080003D10016842F6FF32C868C4F20102914265
:1030900040F00100C8600FDCB1F1804F1ED040F25B
:1030A0000040C4F20000814218D040F60000C4F293
:1030B0000000814212D01EE042F60040C4F201003E
:1030C00081420BD044F20000C4F20100814205D0DD
:1030D00043F20040C4F2010081420CD1886807220B
:1030E000C0F201020240062A4FF0000008D0B2F5FB
:1030F000803F08BF7047086840F00100086000206A
:103100007047000010B590F83C20012A4FF00202F1
:1031100000F0BB8080F83D2004688822A368CFF6C9
:10312000CE721A40A2600B686F2B0FDD1F22C0F217
:103130001002934242DCB3F5005F53DA702B00F0CB
:10314000A780B3F5805F00F09980EFE02F2B41DD81
:103150004F2B4DDC302B00F08780402B40F0E68079
:10316000D1F804C0D1F80CE0236A216A21F00102F1
:10317000A4F18041A1F596314FEAB12107292262DD
:1031800009D8012202FA01F111F0E50F1EBF216AF0
:1031900021F004012162A16923F00A0221F0F0016B
:1031A00041EA0E1142EA0C02A1612262A1684FF6C7
:1031B0008872CFF6CF72114047315EE03F21C0F2F6
:1031C00010018B4246DC2021C0F210018B424BD013
:1031D000302145E0002B47D0102B45D0202B43D089
:1031E000A4E000BF64D0B3F1101F3DD09EE000BF4B
:1031F000502B6DD0602B40F09980D1F804C0D1F8ED
:103200000CE0236A226A43F20041C4F201018C42BD
:1032100022F01001216205D042F60041C4F2010102
:103220008C4203D1216A21F040012162A16923F07F
:10323000A00221F4704141EA0E3142EA0C12A16170
:103240002262A1684FF68872CFF6CF7211406731C3
:1032500013E000BF4021C0F210018B4204D0702166
:10326000C0F210018B4261D1A1684FF68872CFF68F
:10327000CF721140194341F00701A16000220121E2
:1032800080F83D10002180F83C10104610BD00BFB2
:10329000D1E901C3C968A26843EA0C0322F47F4262
:1032A00043EA01211143A160A16841F07701E4E7FD
:1032B000D1E901C3C968A26843EA0C0322F47F4242
:1032C00043EA01211143A160A16841F48041D4E7A0
:1032D000D1F804C0D1F80CE0236A216A21F0010280
:1032E000A4F18041A1F596314FEAB121072922626C
:1032F00009D8012202FA01F111F0E50F1EBF216A7F
:1033000021F004012162A16923F00A0221F0F001F9
:1033100041EA0E1142EA0C02A1612262A1684FF655
:103320008872CFF6CF7211405731A6E70122A6E787
:1033300070470000F0B581B004460068C5680669B2
:10334000B10717D515F0020114D06FF00201016129
:10335000012121778069800704D02046FFF7E8FF2C
:1033600006E000BF204600F0CBF8204600F00AFB44
:1033700000202077700719D515F0040016D02068BA
:103380006FF00401016102212177806910F4407F10
:1033900004D02046FFF7CCFF06E000BF204600F037
:1033A000AFF8204600F0EEFA00202077300717D55E
:1033B00015F0080014D020686FF0080101610421A5
:1033C0002177C069800703D02046FFF7B1FF05E0F1
:1033D000204600F095F8204600F0D4FA002020772F
:1033E000F00619D515F0100016D020686FF0100106
:1033F000016108212177C06910F4407F04D0204684
:10340000FFF796FF06E000BF204600F079F820465F
:1034100000F0B8FA00202077F00718BF15F001007F
:1034200006D020686FF001010161204600F070FBBA
:1034300016F4025F05F0800718BF002F02D1F005D7
:1034400009D410E020686FF4025101612046FFF7B3
:1034500035FCF00507D537B120686FF48071016144
:103460002046FFF729FC700609D515F0400006D06C
:1034700020686FF040010161204600F091FCB00629
:1034800009D515F0200006D020686FF020010161F9
:103490002046FFF715FCF00209D515F4801006D080
:1034A00020686FF4801101612046FFF77BFCB002B9
:1034B00009D515F4001006D020686FF400110161E1
:1034C0002046FFF765FC700209D515F4800006D090
:1034D00020686FF4800101612046FFF765FC30022F
:1034E0000CD515F4000009D021686FF400022046C5
:1034F0000A6101B0BDE8F040FFF720BD01B0F0BDAA
:10350000704700002DE9F04190F83C30012B04BFDA
:103510000220BDE8F0814FEAB202052A00F28C8158
:10352000DFE812F006005200A600FA004E019201F8
:1035300003681D6A1A6AA3F1804622F001021A622A
:103540001A465C6852F818CF8F68A6F59636D1F8FF
:1035500000E025F002054FEAB626072E45EA0705EA
:103560000CD80127B74017F0E50F07D01F6A25F0E8
:10357000080527F004071F62CF683D43072E0BD8CC
:10358000012707FA06F616F0E50F1FBF24F4407472
:10359000D1E9056734433C434FF68C76CFF6FE768F
:1035A0000CEA060747EA0E075C609F614F680969ED
:1035B0005F631D629F6947F008079F619F6927F05D
:1035C00004079F617DE100BF036843F200461C6A67
:1035D0001A6AC4F2010622F010021A621A465D68E5
:1035E00052F818EFB3428E68D1F800C024F02004DE
:1035F00044EA061405D042F60046C4F20106B3427E
:1036000008D11E6A24F0800426F040061E62CE68AF
:1036100044EA0614A3F18046A6F596364FEAB6268C
:10362000072E0DD8012707FA06F616F0E50F1FBF83
:1036300025F44065D1E9056745EA860545EA870531
:1036400048F6FF46CFF6FF660EEA060747EA0C2764
:103650005D609F614F6809699F631C629F6947F4C1
:1036600000679F619F6927F480679F6128E100BF21
:10367000036843F200461C6A1A6AC4F2010622F487
:1036800080721A621A465D6852F81CEFB3428E6867
:10369000D1F800C024F4007444EA062405D042F6B0
:1036A0000046C4F20106B34208D11E6A24F4006445
:1036B00026F480661E62CE6844EA0624A3F18046A2
:1036C000A6F596364FEAB626072E0DD8012707FA3B
:1036D00006F616F0E50F1FBF25F44055D1E9056742
:1036E00045EA061545EA07154FF68C76CFF6FE76C5
:1036F0000EEA060747EA0C075D60DF614F6809695B
:10370000DF631C62DF6947F00807DF61DF6927F0CC
:103710000407DF61D5E000BF036843F200461C6A7E
:103720001A6AC4F2010622F480521A621A465D68CF
:1037300052F81CEFB3428E68D1F800C024F4005454
:1037400044EA063405D042F60046C4F20106B3420C
:1037500008D11E6A24F4004426F480461E62CE6816
:1037600044EA0634A3F18046A6F596364FEAB6261B
:10377000072E0DD8012707FA06F616F0E50F1FBF32
:1037800025F44045D1E9056745EA861545EA8715E0
:1037900048F6FF46CFF6FF660EEA060747EA0C2713
:1037A0005D60DF614F6809691F641C62DF6947F46F
:1037B0000067DF61DF6927F48067DF6180E000BFB9
:1037C0000368D3F820C01A6AA3F1804722F480323C
:1037D0001A621A46A7F596375D6852F8508FD1F8ED
:1037E00000E08E684FEAB727072F09D80124BC40B4
:1037F00014F0E50F1EBF4C6925F4803545EA042519
:103800002CF4003747EA06474FF68C76CFF6FE7663
:10381000033606EA080646EA0E065D601E654E6837
:1038200009699E641F621F6D47F008071F651F6DC1
:1038300027F004071F6544E00121002280F83C20A6
:103840000846BDE8F08100BF0368D3F820C01A6ABB
:10385000A3F1804722F480121A621A46A7F5963720
:103860005D6852F8508FD1F800E08E684FEAB727B4
:10387000072F09D80124BC4014F0E50F1EBF4C6986
:1038800025F4802545EA84252CF4001747EA0657DD
:1038900048F6FF46CFF6FF6606F5407606EA0806CC
:1038A00046EA0E265D601E654E680969DE641F6289
:1038B0001F6D47F400671F651F6D27F480671F6544
:1038C00009021368194311600021002280F83C208E
:1038D0000846BDE8F0810000002804BF01207047C1
:1038E00010B5044690F83D0028B9002084F83C004B
:1038F000204600F023F8022084F83D002068211DB6
:1039000000F07EFE012084F8480084F83E0084F830
:103910003F0084F8400084F8410084F8420084F8B5
:10392000430084F8440084F8450084F8460084F895
:10393000470084F83D00002010BD000080B582B033
:10394000006842F60041C4F2010188421CBF02B087
:1039500080BD41F26000C4F202000168002241F41F
:10396000006101600068002100F40060019001988E
:103970001920FEF7B5FB192002B0BDE88040FEF724
:103980009FBB00007047000061B10A1F4FEAB202FE
:10399000032A11D8DFE802F00214181C00F13F03DB
:1039A00018E000BF90F83E20012A1CBF012070479C
:1039B000022280F83E202CE000F143030AE000BF21
:1039C00000F1400306E000BF00F1410302E000BF48
:1039D00000F142031B78012B1CBF01207047032A12
:1039E00008D8DFE802F0030B0F1300BF022280F8B3
:1039F0003F200EE0022280F843200AE0022280F8F5
:103A0000402006E0022280F8412002E0022280F8F5
:103A10004220026801F01F010120136A00FA01F13F
:103A20008B431362136A0B43A2F18041A1F59631D7
:103A30004FEAB1210629136244D8884010F0650F7F
:103A400040D0506C42F6FF31C4F2010140F4004016
:103A50008A42506410DCB2F1804F1FD040F2004027
:103A6000C4F20000824219D040F60000C4F2000007
:103A7000824213D01FE000BF42F60040C4F20100B2
:103A800082420BD044F20000C4F20100824205D011
:103A900043F20040C4F2010082420CD19068072139
:103AA000C0F20101014006294FF0000008D0B1F535
:103AB000803F08BF7047106840F001001060002090
:103AC000704700BF42F6FF30C4F201008242C2DDFF
:103AD00043F6FF70C4F20100824207DC42F6004068
:103AE000C4F201008242D3D1D8E700BF44F2000003
:103AF000C4F201008242D1D044F60000C4F20100B9
:103B0000824202BF506C40F400405064D3E7000092
:103B10002DE9F0412DED068B0068B0F1804F1BD0F0
:103B200042F60041C4F20101884240F02D8140F28A
:103B3000BA16C2F20006307840F228140028C2F209
:103B4000000460D1A06804285ADC0130A060BDECFC
:103B5000068BBDE8F08100BF40F28C10C2F200007D
:103B600090ED000A40F290109FED891AC2F2000019
:103B700020EE000A9FED872A90ED003A30EE010A10
:103B800020EE020A23EE032A32EE011A80EE010A29
:103B900040F29C12C2F2000240F22810C2F2000071
:103BA000BDEEC00A10EE101A92ED000A40F2A0120B
:103BB000C2F2000292ED001A00F80C1F30EE012A4A
:103BC000BDEEC22A12EE101AB2EE042A23EE022A29
:103BD00041700121BDEEC22A418012EE101ABDEEE5
:103BE000C00A017110EE101ABDEEC10A417110EE4B
:103BF000101A8171BDEC068BBDE8F041FCF7F8BCF2
:103C0000052000F0AFFC0025A5603570FCF7C0FB77
:103C100000F0E0FB00F0C8FB206801303228206093
:103C200018D140F24400C2F2000090ED000A40F2C8
:103C30009C10C2F20000D0ED000A40F28C10C2F2DB
:103C4000000090ED001A256000F01CFB84ED010AD5
:103C500002E000BF94ED010AF9EE080AB2EE021A82
:103C600000F0E2F840F29410C2F20000D0ED000A39
:103C700084ED010A00F098F840F20408C2F200084E
:103C800040F2A417D8F80010C2F2000740F2A815BD
:103C90003868BDEEC00AC2F20005002985ED000AB1
:103CA00018BF002806D1002946D0002844D10020A2
:103CB000286067E040F28C17C2F2000740F29016CD
:103CC00097ED001A9FED35AAC2F2000696ED002A84
:103CD00021EE0A1A81EE021A9FED2F9AB8EEC08AE1
:103CE000F1EE040ABDEEC10AB8EEC00AB0EE491A00
:103CF00000F09AF8F0EE400AB0EE480AB0EE491A29
:103D000000F092F897ED001A96ED002A21EE0A1ABB
:103D100081EE021ABDEEC00A10EE100A85ED000A0F
:103D2000BDEEC11A11EE101A01318142BCBF002153
:103D3000C8F8001026E000BF81B978B19FED161ACF
:103D4000B8EEC00AF1EE040A00F06EF8BDEEC00A4B
:103D500085ED000A10EE100A14E000BF42F6444060
:103D6000C4F201000168002221F4004101604FF01B
:103D7000904010210026FEF739F90120C8F8000014
:103D800028683E606169C863BDEC068BBDE8F081C0
:103D9000000044C20000C8420080C2430000C84383
:103DA00070470000FEE7000040F24C00C2F2000045
:103DB00090ED012A30EEC01A90ED023A90ED034AE0
:103DC00021EE022A90ED050A22EE032A32EE042AA1
:103DD000B4EE402AF1EE10FAB0EE403A80ED032A3C
:103DE00006DC90ED043AB4EE432AF1EE10FA03DA61
:103DF000B0EE432A80ED033A90ED003A23EE011A2B
:103E000031EE021AB4EE401AF1EE10FAC8BF704754
:103E100090ED042AB0EE410AB4EE421AF1EE10FA27
:103E2000B8BFB0EE420A7047B4EE410AF1EE10FAA4
:103E3000B4EE600AC8BFB0EE410AF1EE10FAB8BFA6
:103E4000B0EE600A7047000010B58CB040F2BC10B4
:103E5000C2F200004FF0A04100244FF4403280E84D
:103E60001600052101624FF4A4614FF48062012322
:103E70004FF0040CC0E90B124FF480510B94CDE9C4
:103E80000944CDE90744CDE90544CDE90344CDE932
:103E90000144C0E90344C0E9053C848380F8244020
:103EA00080F83830C16380F84040FCF7ABFF002851
:103EB00018BFFCF7D3FB40F2BC10C2F2000009A906
:103EC0000994FCF717FC002818BFFCF7C7FB022079
:103ED000C0F23040019006200290012003907F2024
:103EE0000490042005900020069040F2BC10C2F21D
:103EF000000001A9FCF75EFC002818BFFCF7AEFB30
:103F00000420C0F6600001900C20029040F2BC102A
:103F1000C2F2000001A9FCF74DFC002818BFFCF715
:103F20009DFB0820C0F6904001901220029040F2C4
:103F3000BC10C2F2000001A9FCF73CFC002818BF2D
:103F4000FCF78CFB1020C1F2C000019018200290F9
:103F500040F2BC10C2F2000001A9FCF72BFC0028C3
:103F600018BFFCF77BFB4FF4807002900020039099
:103F700040F2BC10C2F2000001A9FCF71BFC0028B3
:103F800018BFFCF76BFB0CB010BD000080B582B011
:103F900041F24800C4F202000168002241F004012D
:103FA0000160016801F0040101910199016841F08B
:103FB000010101600068002100F0010000900098FC
:103FC0000B20FEF78DF80B2002B0BDE88040FEF715
:103FD00077B8000080B540F2882046F20041C2F276
:103FE0000000C4F200010022C0E9001205210123F3
:103FF00000F11407C0E90222C0F80F204FF0180C9E
:104000004FF0070E87E80A50C0E90933C0E90B33C7
:10401000C0E90D32C263FDF71FFD002808BF80BD57
:10402000BDE88040FCF71ABB2DE9F04186B00026C0
:1040300041F24C000596C4F202000168002241F0F2
:10404000200101600168102501F020010091009914
:10405000016841F001010160016801F00101009176
:104060000099016841F0020101600068102100F030
:104070000200009000984FF09040FDF7B7FF40F22B
:104080000044C4F6000420464FF4804100224FF45F
:104090008048FDF7ABFF019501AD01274FF090403F
:1040A0002946CDE902760496FDF7A4FE204629466E
:1040B000CDE90187CDE90366FDF79CFE06B0BDE8BA
:1040C000F0810000F0B59DB042F60045002401A843
:1040D0003421C4F201051494CDE91244CDE9104411
:1040E000CDE90E44FCF7E8F840F22816C2F20006CB
:1040F000304640F8145F202740F28F1101228023C0
:10410000C0E90147C0E90314C0E90523FFF7E4FB58
:10411000002818BFFCF7A2FACDE91574179406F130
:10412000140415A92046FEF741FE002818BFFCF72D
:1041300095FA60200E90C8200F9000270EA9204607
:104140000822CDE91077CDE912771497FFF7DAF955
:10415000002818BFFCF782FA2046FEF71BFE062057
:10416000CDE904074FF40050CDE906074FF0007089
:10417000CDE90A0701A92046CDE901770397CDE9EA
:104180000877CDE90C77FEF79DFD002818BFFCF7F6
:1041900065FA7069A84201D01DB0F0BD41F24C0033
:1041A000C4F20200016818AC41F00201016001682C
:1041B000022501F00201189118990168002641F0CA
:1041C000010101600068062700F0010018901898AE
:1041D00040F20040C4F600002146CDE91855CDE973
:1041E0001A661C97FDF706FE4FF4806018A961C19E
:1041F0004FF090402146CDE91B67FDF7FBFD1DB058
:10420000F0BD000080B588B040F2EC200021C2F281
:1042100000004FF0804240F23F634FF0C70C07911F
:10422000CDE905110291C0E90023C0E9021C01613A
:104230008161FEF785FE002818BFFCF70FFA4FF4E6
:104240008050049040F2EC20C2F2000004A9FEF776
:1042500059FF002818BFFCF701FA20200190002028
:10426000039040F2EC20C2F2000001A9FEF79EFD8F
:10427000002818BFFCF7F2F908B080BDFEE7000087
:10428000FEE7000040F28810C2F2000090ED012A23
:10429000B1EE0C3A0121B4EE432AF1EE10FAC8BF98
:1042A00002210170B4EE431A40F20000F1EE10FA60
:1042B00030EEC01AC2F200003ADA90ED092A90ED11
:1042C0000A3A90ED0B4A21EE022A90ED0D0A22EEF9
:1042D000032A32EE042AB4EE402AF1EE10FAB0EED0
:1042E000403A80ED0B2A06DC90ED0C3AB4EE432AFE
:1042F000F1EE10FA03DAB0EE432A80ED0B3A90EDBE
:10430000083A23EE011A31EE021AB4EE401AF1EE29
:1043100010FA0BDC90ED0C2AB0EE410AB4EE421A12
:10432000F1EE10FABCBFB0EE420A7047704700BF12
:1043300090ED032A90ED043A90ED054A21EE022A11
:1043400090ED070A22EE032A32EE042AB4EE402A48
:10435000F1EE10FAB0EE403A80ED052A06DC90ED61
:10436000063AB4EE432AF1EE10FA03DAB0EE432A2D
:1043700080ED053A90ED023A23EE011A31EE021A71
:10438000B4EE401AF1EE10FAC8BF704790ED062A5D
:10439000B0EE410AB4EE421AF1EE10FAB8BFB0EE38
:1043A000420A70477047000040F28810C2F20000D5
:1043B00090ED010A90ED021A90ED042A90ED033A77
:1043C00022EE011A23EE000A80ED051A80ED060A9E
:1043D0007047000070B540F28814C2F2000494EDFA
:1043E000040AB2EE041AB4EE410AF1EE10FA1DDD31
:1043F000606A032866D140F20005C2F200056868D1
:10440000002800F0AB8042F64440C4F2010001688D
:10441000002221F4004101604FF09040102100265D
:10442000FDF7E4FD0120E661287070BD94ED030AFC
:10443000B2EE021AB4EE410AF1EE10FA1EDD606A25
:1044400003283FD140F20005C2F200056868002849
:1044500000F0848042F64440C4F20100016800226A
:1044600021F4004101604FF0904010210026FDF73B
:10447000BDFD0220E661287070BD00BFB9EE081ACC
:10448000B4EE410AF1EE10FA20DA606A032819D17D
:1044900040F20005C2F20005686800285ED042F6CE
:1044A0004440C4F201000168002221F4004101608F
:1044B0004FF0904010210026FDF798FD0320E661A3
:1044C000287070BD0130606270BD00BF94ED010ABC
:1044D000B3EE0A1AB4EE410AF1EE10FA18DD40F21A
:1044E0000005C2F200056868C0B342F64440C4F259
:1044F00001000168002221F4004101604FF090406A
:1045000010210026FDF772FD0420E661287070BDC1
:1045100094ED020AB3EE0C1AB4EE410AF1EE10FA71
:104520001ADD40F20005C2F200056868002808BFE5
:1045300070BD42F64440C4F201000168002221F43B
:10454000004101604FF0904010210026FDF74EFD24
:104550000720E661287070BD0020606270BD000019
:104560007047000070B5F8B140F20005C2F20005D6
:1045700004466868002808BF70BD42F64440C4F293
:1045800001000168002221F4004101604FF09040D9
:1045900010210026FDF72AFD40F28810C2F200002B
:1045A000C6612C7070BD00BF40F28810C2F20000DE
:1045B00090ED010AB1EE0C1AB4EE410AF1EE10FAD8
:1045C00002DD0221017070BD0121017070BD00008B
:1045D000FDF718BD4EF68850CEF20000016841F498
:1045E000700101607047000040F23C10C2F2000010
:1045F000FEF7A0BE40F2EC20C2F20000FEF79ABE29
:1046000080B540F2FF7ED0F800C0C4F2000E7045C5
:1046100022DD40F60002C4F20002904225D043F2AF
:104620000042C4F2010290421FD042F60042C4F29E
:104630000102904219D043F2FF32C4F201029042CB
:104640001EDC70452CDCB0F1804F3FD040F20042C0
:10465000C4F2000238E000BFB0F1804F05D040F254
:104660000042C4F200029042E5D14A682CF0700387
:1046700042EA030C43F2FF32C4F201029042E0DD51
:1046800044F2FF32C4F20102904213DC43F20042D2
:10469000C4F20102904219D044F2000212E000BFBD
:1046A00040F60002C4F2000290420FD042F60042EF
:1046B00008E000BF44F60002C4F20102904205D0B7
:1046C00044F20042C4F20102904204D1CA682CF4C0
:1046D000407342EA030C8A680B68D1F814E0C262A6
:1046E000A0F18042A2F596324FEAB222072A8362F5
:1046F00007D8012303FA02F212F0E50F1CBF096983
:10470000016302682CF0800142F0040241EA0E01CC
:10471000026001224261016080BD0000FEE70000EE
:1047200094B0FDF77DFC002400200C94CDE90A44F0
:10473000CDE90844FDF710FD01204FF48031032539
:10474000069007910221CDE90E501420CDE9100109
:1047500006A80D91CDE91211FEF742F820B1EFF352
:10476000108072B6FEE700BF0F20CDE9010501A859
:104770000421CDE903440594FDF7C2FE20B1EFF317
:10478000108072B6FEE700BF42F64448C4F201084A
:10479000FFF74AFCFFF7FAFBFFF71CFCFFF754FB9F
:1047A000FFF790FCFFF72EFDD8F80000102120F451
:1047B0000040C8F800004FF0904000220024FDF7B0
:1047C00015FC40F2881640F28820C2F20006C2F2C0
:1047D0000000F461FDF7ECFA20B1EFF3108072B63F
:1047E000FEE700BFFBF74CFF40F28820C2F200005A
:1047F000012100220127FCF78DFEFFF7EBFD40F2BF
:104800003C14C2F2000420460821FFF7BDF8204600
:104810000821FEF71DFB2046FEF72AFC206840F227
:10482000EC24C168C2F2000441F00101C1602046DD
:10483000FEF71EFC2046FEF7D5FB40F2BC1006F149
:104840002801C2F200000522FCF76CFC40F20004D3
:1048500040F24005C2F20004C2F2000504E000BFCD
:1048600001202F70FCF742FE4FF0904010210122F2
:10487000FDF7BCFB6068F7610028F1D0306A0028C2
:10488000EED04FF0904010210122FDF7AFFBD8F899
:10489000000040F40040C8F80000E1E721F00042C9
:1048A00001F00043A2F16052B2F5801F28BFD2F19F
:1048B0007F6C0BD95FEA001C43EAC20242EB5070E6
:1048C00018BF704728BF20F001007047B2F5801F65
:1048D000BCBF184670474FEA410C1CF5001F02D2BE
:1048E000084600F0C2BA70B500F070F90000008907
:1048F000FFF7F6BF4FF00040A0F5800070470000C2
:1049000010B591EA030F48BF83F0004300F1BA816C
:10491000841A71EB030C05D2121943EB0C03001B34
:1049200061EB0C014FEA1154A4EB135CDFF81CE1BE
:104930001EEA430F18BF9EEA445F00F0748021EA2C
:10494000045123EA0E0343F48013DCF1200E32D32A
:1049500022FA0CFE10EB0E0023FA0CFE41EB0E01C6
:10496000CCF1200E03FA0EFE10EB0E00CCF1200E5F
:1049700051F10001B1F5801F32D201EB045112FA5E
:104980000EF2BDE8104058BF7047401C38BF5FEAC8
:10499000420218BF7047002814BF20F0010041F107
:1049A00000014FEA410313F5001F38BF7047A1F122
:1049B000C04100F059B9012A43EB0302ACF1200CCD
:1049C000DCF11F0E32BF4FF0000E23FA0CF310EB98
:1049D000030041EB0451B4EB115FD0D0A1EB0451C3
:1049E00001F58011490801EB04515FEA30000ED354
:1049F00050F1000038BF12FA0EFE08D1BDE8104099
:104A0000C9E7401C38BF5FEA4202CAD1C3E7BDE82C
:104A100010404FEA410313F5001F38BF7047A1F162
:104A2000C04100F021B99EEA445F08D011EA5E0F50
:104A3000BDE8104004BF01F0004100207047BDE810
:104A4000104070B500F0C2F864FBBE3E0000E0FF0D
:104A5000B0FA80F310FA03F10AD0C3F11D0303F595
:104A600080634FEA03524FEA415002EBD121704775
:104A70004FF000007047000070B5DFF848C11CEA35
:104A8000111E1EBF1CEA13159EEA0C0F95EA0C0FAF
:104A900000F06F8081EA03044EEAD47EAE4421EA3E
:104AA0004C1123EA4C1341F4801143F48013AEF10E
:104AB0007F7EA1FB024CA0FB0365361955EB0C056C
:104AC000A1FB034C4CF10003A0FB021C16EB0C06EF
:104AD000654153F10003094218BF46F0010613F483
:104AE000007F0BD14FEA03314FEA053041EA1551FF
:104AF00040EA165034036FF003020AE04FEAC32184
:104B00004FEAC52041EA555140EA5650F4026FF091
:104B1000020202EB2E4201EB025585EACE710AD069
:104B20005FEA440C18BF24F0004450F1000041F14A
:104B3000000120EAD47040F2FE7C624500D270BDD4
:104B4000A84214BF4FF080444FF04044002E08BFED
:104B50000024BEF1806FA8BFA1F1C041BDE8704044
:104B600080F2828001F1C04101F000414FF000006D
:104B700070470CEA13159EEA0C0F18BF95EA0C0F4C
:104B800006D081EA030E4FF000000EF0004170BD28
:104B900000F01CF88900013E00F007B800F009B8E9
:104BA0004FEA430C5FEA5C5C08D081EA030100F045
:104BB0005BB84FEA410C5FEA5C5CF6D102494FF00A
:104BC000000070470000FF070000F87F0EF1020EA2
:104BD0002EF0030E5EF8046B364205D4012A43EB37
:104BE000030515F5001F12D8012841EB010C1CF537
:104BF000001F0CD80ED14FEAD17C0CEB4C0C0CF101
:104C0000020C15F5001F08BF4CEBD37C04E04FF0FD
:104C1000080C01E04FEAD37C0CEB4C0526FA05F6B4
:104C200006F00706B6F1040C06D20EEB860CBDE8C2
:104C300070404CF0010C6047DFE80CF0090B0202F9
:104C40004FF00041A1F500214FF0000070BD194662
:104C50001046012851EB010418BFD4F5001484BF9D
:104C6000002001F0004170BD0808A0F500114FEAD6
:104C70003101704710B591EA030F48BF83F000433C
:104C80003FF546AE841A71EB030C07D28CF0004C52
:104C9000121943EB0C03001B61EB0C014FEA11549A
:104CA000A4EB135CDFF8A4E11EEA430F18BF9EEAF1
:104CB000445F00F0B48021EA045123EA6E035242BB
:104CC000C3EB6E0338BF5B1EDCF1200E25D322FA46
:104CD0000CFE10EB0E0043FA0CFE41EB0E01CCF182
:104CE000200E03FA0EFE10EB0E00CCF1200E51F157
:104CF000000129D401EB045112FA0EF2BDE8104074
:104D000058BF7047401C1CBFB2F1004F70470028CD
:104D10000CBF491C20F00100704712EB020E43EB60
:104D2000030218BF4FF0010E4EEA4202ACF1200C14
:104D3000DCF11E0E56D943FA0CFE10EB0E00CCF13E
:104D40001E0E51F1FF31D5D50EF1010E12FA0EFEF5
:104D5000404141EB010101EB445C5FEA5C5C10D92E
:104D600001EB045110EBDE7038BFBEF1004FBDE81F
:104D7000104018BF704700280CBF491C20F00100EC
:104D8000704734D24FEAD42C24F4006411F500119A
:104D90001BD0B1FA81F20B3AA41AA41ED2F120035F
:104DA000914030FA03F31943904001EBCC7101EBD1
:104DB0000451002CBDE81040A8BF704701F1C0416C
:104DC00001F000414FF000007047B0FA80F310FA94
:104DD00003F102D1BDE810407047E41A173C4805C2
:104DE000C90AE2E701EB0451BDE8104070474910E1
:104DF0004FEA300001EB0451BDE8104002E04FF0F3
:104E0000000170474A0008BF0042F8D0B2F5001F09
:104E100028BF704701F000414FF0000070479EEA44
:104E2000445F07D011EA5E0FBDE8104004BF0021C7
:104E300000207047BDE8104070B5FFF7C7FE00BF07
:104E400040DFF63E104683F0004170470000E0FF6F
:104E5000F1EE100A4FF6FF71C0F2C03120EA0100F6
:104E600040F04070E1EE100A7047FF2141EAD05057
:104E7000C0057047000000000000000001020304AC
:104E8000060708090001020304050607080C1014B0
:104E900018203040B84E00080000002068000000D4
:104EA00014020008204F000868000020D808000005
:104EB00030020008000000000600000001000000B1
:104EC000CDCC4C3D000040410AD7233C00000000FF
:104ED000000000C000004040CDCC4C3D00004041EF
:104EE0000AD7233C00000000000000C000000000C2
:104EF00010000000010000000100000000007041EF
:104F00000024F400EC51383E00001644ACC5A7372D
:104F1000000000000000A0400080C243000000002C
:04000005080001D915
:00000001FF
